:020000040800F2
:1000000000E40020450100084D0100084F010008F0
:1000100051010008530100085501000800000000CC
:100020000000000000000000000000005701000870
:1000300059010008000000005B0100089140000821
:1000400071550008F13E0008F1400008473F0008E4
:10005000590E00083D3F00083B0E00083F0E000807
:100060005F010008450E0008470E00085F01000808
:100070005F0100085F0100085F0100085F010008E0
:100080005F0100085F0100085F0100085F010008D0
:100090005F0100085F0100085F010008490E0008C9
:1000A000F3400008F9400008F7400008F540000858
:1000B000FB400008FD400008FF400008872D0008B5
:1000C000852D00088B2D0008892D0008493F000868
:1000D0004B3F0008E9410008EB410008ED410008F2
:1000E0003D0E00083F3F0008EF4100085F01000897
:1000F0005F0100085F0100085F0100085F01000860
:100100005F0100085F0100085F0100085F0100084F
:100110005F0100085F0100085F0100085F0100083F
:100120005F0100085F0100085F0100085F0100082F
:10013000DFF80CD000F05AF800480047757100084D
:1001400000E400200648804706480047FEE7FEE737
:10015000FEE7FEE7FEE7FEE7FEE7FEE7FEE7FEE777
:10016000A14000083101000810B5431A934209D29A
:100170008318881803E010F8011D03F8011D521EB2
:10018000F9D210BD40EA01039B0703D009E008C97A
:10019000121F08C0042AFAD203E011F8013B00F84C
:1001A000013B521EF9D210BDD2B201E000F8012B82
:1001B000491EFBD270470022F6E710B513460A46E7
:1001C00004461946FFF7F0FF204610BD421C10F808
:1001D000011B0029FBD1801A7047034611F8012B3F
:1001E00000F8012B002AF9D118467047064C074D3C
:1001F00006E0E06840F0010394E8070098471034F7
:10020000AC42F6D3FFF798FF64AD000884AD000858
:1002100070B5B0F904600546304601F089FA04462D
:100220002946304603F0FEFF002841D028680B28FD
:100230002DD00C2802D00F2835D122E0A9683046F5
:10024000C9B1097A0029E18C4FEAC1510FD00029C8
:100250002EDB35464FF4807104F04EF8217F88077D
:1002600026D52846BDE87040012104F087BC00294E
:100270001EDA022200E003222146BDE8704005F0AC
:10028000E3B931462046BDE8704006F0BFB904F13D
:10029000480001F0CEF904F14A0001F0CAF904F176
:1002A0004C0001F0C6F92846BDE8704004F050BA91
:1002B00070BD00002DE9FF410C46DDE90AC1302682
:1002C0000E4F0D9D89B2CDF800C00396CDE9011700
:1002D000214604F0A5F904000CD001F029FA0646E5
:1002E0001022294604F0D4F82022054906F12800FE
:1002F000FFF73AFF04B02046BDE8F0811102000884
:100300005C0000207FB516460446B0F90820408AFC
:100310001D460023CDE90013CDE90202B4F90C001B
:10032000B4F910304119B4F90A00B4F90E20304480
:10033000FFF7C0FF0546616800F03BF804B02846AF
:1003400070BD2DE9F04115460E46002815D001F08C
:10035000EFF9B0F94800002788B101F0E9F98046CB
:10036000FFF734FF0446681E844200DD044622463F
:1003700041463046FFF7F8FE3755BDE8F08137704B
:10038000FBE770B516460C46054619463046049AFA
:1003900001F056FA024621462846BDE8704000F0BA
:1003A0001AB800294FF0100101D003F0A5BF03F0E7
:1003B0001FBF70B50D4604000CD001F0B9F92946F5
:1003C000483002F023FC002804D02046BDE87040ED
:1003D00004F0A9BB70BD70B515460C46060010D0E0
:1003E00001F0A6F9032C0CD800EB440404F14A00F8
:1003F00001F01FF9A4F84A503046BDE8704004F0FF
:1004000092BB70BD70B54FF0C0452A242C800B4CB8
:10041000C0F30F2626802080C1F30F20208021808A
:100420002B202880C2F30F2020802280C3F30F20CE
:10043000208023802C20288070BD000000000260F6
:100440002DE9F041064610481C461546007B0F4634
:10045000800708D514E02A88B9B2B0B200F0DCFAFF
:10046000641E761CAD1C002CF5DCBDE8F0812A88EA
:100470001AB1B9B2B0B200F0CFFA641E761CAD1C4E
:10048000002CF4DCF1E7000034DD00202DE9F0471A
:100490000546DDE908400F46B0F80090B0F802804C
:1004A000774816789246007B10F0030103F00700AE
:1004B00004D0012912D0022918D107E0082815D24A
:1004C000DFE800F068737F8B98A4B0BC08280DD2D9
:1004D000DFE800F00C151F29333D4751082805D2ED
:1004E000DFE800F0BCBEC0C2C4C6C8CA300604D52E
:1004F000B9B2A8B2424600F08FFA641E71D07006FD
:1005000005D5681CB9B280B2424600F085FA641E77
:1005100067D0B00605D5A81CB9B280B2424600F03B
:100520007BFA641E5DD0F00605D5E81CB9B280B236
:10053000424600F071FA641E53D0300705D5281DDD
:10054000B9B280B2424600F067FA641E49D0700723
:1005500005D5681DB9B280B2424600F05DFA641E4E
:100560003FD0B00705D5A81DB9B280B2424600F011
:1005700053FA641E35D0F00705D0E81DB9B280B239
:10058000424600F049FA641E78D005F108051AF8D1
:10059000016FABE7300601D5424600E04A46B9B2EA
:1005A000A8B200F039FA641E68D0700601D5424640
:1005B00000E04A46681CB9B280B200F02DFA641E11
:1005C0005CD0B00601D5424600E04A46A81CB9B24C
:1005D00080B200F021FA641E50D0F00602D54246E7
:1005E00001E04BE04A46E81CB9B280B200F014FAD0
:1005F000641E43D0300701D5424600E04A46281D1C
:10060000B9B280B200F008FA641E37D0700701D585
:10061000424600E04A46681DB9B280B200F0FCF9DB
:10062000641E2BD0B00701D5424600E04A46A81D03
:10063000B9B280B200F0F0F9641E1FD0F00701D00B
:10064000424600E04A46E81DB9B280B200F0E4F943
:10065000641E13D008351AF8016F9BE7641E0DD095
:10066000641E0BD0641E09D0641E07D0641E05D022
:10067000641E03D0641E01D0641EEFD1BDE8F08774
:1006800034DD00202DE9F04706467848DDE90849C9
:10069000007B157890460F46B9F1000F4FEA807045
:1006A00078D0002803F0030005DAC0B3012843D056
:1006B00002285DD14EE020B101280BD002281FD1C5
:1006C00013E0A909B0B239F81120B9B200F0A4F9C9
:1006D000641E6FD0C5F30111701C39F81120B9B236
:1006E00080B200F099F9641E64D0C5F38101B01C9A
:1006F00039F81120B9B280B200F08EF9641E59D0D9
:1007000005F00301F01C39F81120B9B280B200F0F5
:1007100083F9641E4ED018F8015F361DD1E7FFE75C
:1007200015F0C00F06D0A909B0B239F81120B9B23E
:1007300000F072F9641E3DD015F0300F08D0C5F3FB
:100740000111701C39F81120B9B280B200F064F9BF
:10075000641E2FD015F00C0F08D0C5F38101B01C1A
:1007600039F81120B9B280B200F056F9641E7AD07F
:10077000A80708D005F00301F01C39F81120B9B220
:1007800080B200F049F9641E6DD018F8015F361D83
:10079000C6E7FFE7002803F0030005DA88B3012865
:1007A0003AD0022850D143E028B101280AD00228CB
:1007B0001AD110E057E0AA09B9B2B0B200F02CF992
:1007C000641E50D0701CB9B280B2C5F3011200F0A3
:1007D00023F9641E47D0B01CB9B280B2C5F38102C0
:1007E00000F01AF9641E3ED0F01C05F00302B9B205
:1007F00080B200F011F9641E35D018F8015F361D83
:10080000D9E7FFE715F0C00F04D0AA09B9B2B0B21A
:1008100000F002F9641E26D015F0300F06D0701CCF
:10082000B9B280B2C5F3011200F0F6F8641E1AD016
:1008300015F00C0F06D0B01CB9B280B2C5F381021E
:1008400000F0EAF8641E0ED0A80706D0F01C05F0F0
:100850000302B9B280B200F0DFF8641E03D018F8CA
:10086000015F361DCEE7BDE8F087000034DD0020D3
:100870002DE9F04705464248DDE90869007B147818
:1008800017468846B9F1000F4FEA80703ED0002825
:100890004FEAC37001DAD8B126E048B92109A8B2FD
:1008A00039F811201FFA88F100F0B6F8761E64D0EE
:1008B00004F00F01681C39F811201FFA88F180B28A
:1008C00000F0AAF8761E58D0AD1C17F8014FE5E7E6
:1008D000200907D02109A8B239F811201FFA88F1A0
:1008E00000F09AF8761E48D0200709D004F00F01D6
:1008F000681C39F811201FFA88F180B200F08CF8DA
:10090000761E3AD0AD1C17F8014FE1E700284FEAF8
:10091000C37001DAB8B120E038B922091FFA88F1B2
:10092000A8B200F079F8761E27D0681C04F00F02F8
:100930001FFA88F180B200F06FF8761E1DD0AD1C52
:1009400017F8014FE9E7200905D022091FFA88F1BD
:10095000A8B200F061F8761E0FD0200707D0681CFF
:1009600004F00F021FFA88F180B200F055F8761EED
:1009700003D0AD1C17F8014FE5E7BDE8F087000094
:1009800034DD00202DE9F04106462248DDF81880CC
:100990001C46007B15460F4680071CD4B8F1000F9B
:1009A0000AD115E02878B9B238F81020B0B200F0BA
:1009B00033F8641E761C6D1C002CF3DCBDE8F0815E
:1009C0002A78B9B2B0B200F027F8641E761C6D1C0C
:1009D000002CF5DCF2E7B8F1000F0BD116E0287817
:1009E00028B138F81020B9B2B0B200F015F8641E82
:1009F000761C6D1C002CF2DCE0E72A781AB1B9B243
:100A0000B0B200F009F8641E761C6D1C002CF4DCFA
:100A1000D4E7000034DD002010B50B4614461A461A
:100A20000146FFF7EFFC0148048010BD00000260A2
:100A300070B50D4606007CD000F07AFE040078D038
:100A4000E26C1AB12946304690476DE0122D4BD02A
:100A500008DC082D50D00D2D66D0102D47D0112D5B
:100A600008D11AE0132D29D01B2D5DD01D2D4ED09D
:100A70001E2D47D0202D57DB94F8480018B1214691
:100A8000304604F052FEAAB22146304605F00AFD77
:100A900048B3216C491C20462BE0B4F9280010B360
:100AA00000F046FE0546216C01F0B0FD44192046D9
:100AB00001F084FD7F2837D2401C0FE0B4F92800F4
:100AC00088B100F035FE0546216C01F09FFD441908
:100AD000204601F073FD202826D9401E20700521F4
:100AE000304604F04BF81FE0216C491C01E0216CFA
:100AF000491E00F080F917E0216C491E00F07BF9D7
:100B0000214600E00146304604F00FFE0CE094F868
:100B10004800012805D0012084F84800216CBAE77C
:100B200007E0002084F848003046BDE8704003F03C
:100B3000FABF70BD2DE9FF410C46DDE90AE1DDE9B0
:100B40000D7689B25025DFF868C041F4805141F03C
:100B50000201CDF800E00395CDE9011C214603F028
:100B60005FFD05001FD000F0E3FD0446102239466A
:100B700003F08EFC1C220F4904F15400FFF7F4FA35
:100B8000012084F8490006B9082631B261850020A9
:100B9000A0852085491C204605F06EFC18B9284622
:100BA00003F004FE002504B02846BDE8F0810000F3
:100BB0006D0D00087C000020F0B5044685B01D4690
:100BC00016464069B4F90820638A0027CDE902324D
:100BD000CDE900170490B4F90C00B4F910304119B4
:100BE000B4F90A00B4F90E203044FFF7A3FF050062
:100BF00002D0618A00F0ABF805B02846F0BD2DE9BF
:100C0000F84F0C465FEA000956D000F091FD05460A
:100C1000B0F9280000284FD000F08AFD0090E86D60
:100C200001F08CFC8246484603F0DFFE0746009840
:100C300001F09EF8064695F8540000F003000128E4
:100C400016D002280DD0296AA86D49690844241AD3
:100C5000641E009801F06EFF8046002C0EDA002121
:100C600021E0B81B401C00EBD070A4EB6004F0E75F
:100C7000A96DB81B401A241A641CEAE7B44201DDCE
:100C8000014610E000273E4608E0684601F0A8FC57
:100C900001F042F80644A64204DC7F1C474501DA15
:100CA000A642F2DB3946284600F0A5F8504601F08E
:100CB00045FC484603F037FFBDE8F88F2DE9F041C9
:100CC0000E465FEA000840D000F032FD04467EB3D5
:100CD000B4F92800002520B100F02AFDFFF776FACC
:100CE000451C304601F026FF0146B4F92A0088422F
:100CF00000DA0146304601F089FC471C791B20468A
:100D000005F042FCE0B1B4F9280000F011FD3A46CC
:100D10003146FFF729FA7F1E2764B4F92A0087427B
:100D20000ED194F8480001280AD17F1E276407E0FD
:100D3000FFE704F1280000F07CFC0020A08520647F
:100D40004046BDE8F04103F0EEBEBDE8F08170B56D
:100D50000C46050009D000F0EBFC002805D04465E6
:100D60002846BDE8704003F0DEBE70BD2DE9F041BD
:100D7000B0F904500446284600F0DAFC064628463E
:100D800004F080FA07462146284603F04BFA002873
:100D90002FD020680B2815D00C2804D00E2816D090
:100DA0000F2821D108E0A068F0B1017AE1B1016813
:100DB0002846FFF724FF17E029463046BDE8F041FA
:100DC00005F0A4BC06F1280000F033FC0CE05FB194
:100DD000A0684168002907DD0168092904D0284678
:100DE000BDE8F041FFF724BE2046BDE8F04103F026
:100DF000AFBCBDE8F08170B50546B0F928000C46DF
:100E0000002819D000F094FC01F094FE95F84810E9
:100E100001B10121002C00DA0024844200DD0446E7
:100E2000B5F92A00401AA04200DA0446286CA04214
:100E300000D02C640020686470BD704770470220A9
:100E400000F004B87047704770470000014908601F
:100E50007047000014040140704700002DE9F04F76
:100E600089B013AD129EB5E8100D44F480574825A3
:100E7000DFF89CC0DDF85C90BCB200960395CDE92C
:100E8000014C03F0CDFB06003DD000F051FC0446C0
:100E90003022514603F0FCFA20221E4904F12800BA
:100EA000FFF762F9483400256582C4F80090A4F881
:100EB0001480E582E580E561483C04A9204600F005
:100EC00062F8154841F2827100960395CDE9011050
:100ED000BDF91A00BDF91610BDF91820431ABDF965
:100EE00014005B1C121A521C03F09AFBA4F84C006D
:100EF00042F20400074202D1304603F0C2FC5946D8
:100F0000304600F02EF809B03046BDE8F08F000002
:100F1000315E00089C0000206B100008F0B587B01F
:100F200015461C46428A0DF1080C0C9FB0F908309A
:100F30004668ACE8CC000022CDE90012B0F90C10F4
:100F4000B0F91030B0F90E20B0F90A00214428445D
:100F5000FFF784FF07B0F0BD002801D005F0F9BD10
:100F6000704770B50D4604000CD000F0E1FB294637
:100F7000503001F04BFE002804D02046BDE8704000
:100F800003F0D1BD70BD2DE9F05F4FF000080C46B5
:100F90000546C146B0F9426004F0A1F883462846F0
:100FA00004F0A4F8824695F82600800601D5B5F92C
:100FB0004490284600F049F80746B5F94E0010B1B4
:100FC00003F01FFD80462780A4F80280ABEB0600EB
:100FD00006EB0901A680401ECA19208102EB080118
:100FE000E180AAEB0601491E6181A6812082F019E9
:100FF000E681401E6082B5F9180022E000F098FBFF
:10100000B0F90010B5F90020B0F90430891A9A1A25
:10101000B0F90230B5F90270DB1BB3420FD1037F88
:101020001B0606D5B4F910208A4208DB491E21822E
:1010300005E0B4F90C10914201DC521CA281B0F918
:101040001A000028DAD1BDE8F09F10B50146002053
:1010500091F82620920607D5B1F94000002803D167
:10106000886A00F0A5FE801C10BD2DE9FE43B0F992
:1010700004700446384603F0A1FC804600F058FB9B
:101080000546866C2068172856D008DC0E283BD011
:101090000F280BD014284FD015283CD14CE01F2826
:1010A00018D0202829D0222835D143E0E86B6FF0F2
:1010B0007041884203D002F013FA00F047FB002E83
:1010C00006D007CC8DE80700ADF804706846B0473D
:1010D000BDE8FE83A0680028FAD0B5F95E0020B113
:1010E000B84202D003F07EFE04E0384603F0C2FEB0
:1010F000A5F85E000020A060EAE703B02146404664
:10110000BDE8F04303F08EB8A0684168002902DD15
:101110000068092808D07EB1A4F8048003B02046F6
:10112000B446BDE8F0436047384603F0A3FEA5F897
:101130005E00CDE7E86BDEE72046BDE8FE4303F046
:1011400007BB00004FF0204202EB8000002901683D
:1011500002D041F0010101E0014A114001607047F5
:10116000FEFF0F0030B5D0E901121143D0E903238F
:101170001A43114342690368114382691143C269EA
:101180001143026A1143426A1143826A1143C26ADF
:101190001143026B11434FF0204242F82310816843
:1011A000082906D1016802EB81010B6843F0400376
:1011B0000B60416BD1E9003443EA04138C688D89DC
:1011C000240244EA054423430C8A43EA04530C7D79
:1011D000896943EA04630B43016802EB81014B60B8
:1011E000C16AB1F5804F07D000686FF0704102EB23
:1011F0008000C0F8041130BD816B0068D1E9003473
:1012000043EA04138C680D8A240244EA05542343FC
:101210000C7D896943EA046302EB80000B43C0F84C
:10122000043130BD2DE9F0410446C66886B017464A
:101230008846002001F07FF9054626B1307910B1CB
:1012400045F0020001E025F0020001F074F9206988
:10125000012658B1D4E902128DE84600039663884E
:101260002288046839464046A04718E0E06801F04B
:10127000F3FF28B9E088012801D0002000E00B48E6
:10128000A288E388A1680096CDE90410CDE9023276
:101290000196638822883946404601F089FD06B0F0
:1012A0002846BDE8F04101F046B9000034DD0020D9
:1012B00010B5002001F031F96FF07F4001F02FF9F7
:1012C000012001F04BF9002001F050F9002001F05D
:1012D00055F9002001F02FF9034801F02FF9BDE87E
:1012E0001040002001F032B9847C0008F0B5CC78C1
:1012F000002204F00F03E40601D58C7823430C7818
:101300004FF00F0C4FF0010EDCB105680E880EFA9D
:1013100002F42640A64210D196000CFA06F725EA00
:10132000070703FA06F5CE783D43282E02D0482E53
:1013300002D002E0446100E00461521C082AE5D3B7
:1013400005600A88FF2A1CD94468002202F10806B9
:101350000EFA06F50E882E40AE420ED196000CFA1B
:1013600006F7BC4303FA06F7CE783C43282E00D19B
:101370004561CE78482E00D10561521C082AE5D37C
:101380004460F0BD41617047016170472DE9F04F45
:10139000DFF820B18BB04FF0FF36BBF92220069268
:1013A000DBF81830BBF924A09C69A189814206D8DA
:1013B000E289824203D3451AD4F8008013E0D4E9CD
:1013C000018179B10A8882420CD84D88854209D3BF
:1013D000801A496880B201EB8000B0F90050B0F982
:1013E000026000E03546681C5BD0187DA17C00FBE4
:1013F00001F9217CCDE90710BBF92A70384602F0CB
:10140000BFF8C0B205FB09810990A27C0125CDF887
:1014100014B00295CDE90321DBF818000DF1180C8A
:10142000C17D807DCDE90001BCE80D00514601F091
:10143000BFFC701C17D047F0020002F0A1F8A17C9D
:1014400006FB0982CDE9042BCDE90251DBF8180037
:101450000DF1180CC17D807DCDE90001BCE80D00C7
:10146000514601F0A5FCDBF818005D46417D007D8A
:10147000814213D9022F11D087F0040002F080F8C6
:10148000A869037D427D857D03FB02A102EB0A036F
:10149000DDE9060202FB050201F008FE099802F0F0
:1014A0006FF8BBF82210627C1144ABF822100BB02D
:1014B000BDE8F08F34DD0020024880698069407CFF
:1014C0007047000034DD00200220088070478069EA
:1014D00082898A4202D8C2898A4207D2806838B19A
:1014E00002888A4204D84088884201D3012070478C
:1014F000002070472DE9F0432A4D044687B0A869C3
:10150000B5F92A802146806900F04EF8002846D0BF
:1015100041680088201A01EBC0044046A67802F01A
:101520002FF8814660680121CDE90405CDE9021656
:10153000A869C27D817DCDE90012037D2278B5F9CD
:101540002410B5F9220001F033FCA869477D067D1F
:10155000B74219D9C07D47434643B8F1020F13D0B3
:1015600000F0E5FB804600F0CFFB00F0D8FFB5F9B6
:10157000220021784218B5F92410CB19314401F02A
:1015800095FD404600F0CBFF484601F0F9FFAA69FF
:10159000B5F922006178927D01FB0200688407B0F2
:1015A000BDE8F08334DD002006E002888A4202D8DC
:1015B00042888A4202D280680028F6D17047000033
:1015C00070B5094C05462946A0698069FFF7ECFF14
:1015D000002807D041680088281A11F83000A16956
:1015E000897D484370BD000034DD00200120088063
:1015F000704710B58069FFF7D7FF002800D00120A1
:1016000010BD002801D003F0B5BF704770B5054686
:10161000FFF7F7FF040005D000F08AF82A46002102
:1016200001F013FB204670BD002801D004F09EBEDF
:10163000704710B50446B0F90000FFF7F5FF002031
:10164000208010BD70B5002404F018F80020124D61
:101650000CE055F822005A68104401EB410255F89D
:101660002220101AA04200DD0446084600EB40028A
:1016700005EB820319890029EBD100EB400005EB53
:10168000820155F8200049680844C0F52040A04276
:1016900000DD0446204670BD04A10020002805D0CE
:1016A000034900EB400001EB8000406870470000F8
:1016B00004A100200A4840F20151042241608160E7
:1016C0004FF420410161416100210160C160054882
:1016D000C0E9001201810449012008707047000030
:1016E0001CDD002004A10020440000202DE9F04171
:1016F00006460C460846FFF784FF050015D0A6B144
:101700003046FFF7CBFFA04200DA0446284600F03F
:101710000FF80746304600F00BF8014622463846DF
:10172000FEF722FD3046FFF77FFF2846BDE8F08137
:10173000002807D0044900EB400051F82000A1F533
:10174000204108447047000004A1002010B500218A
:10175000084600F031FB40F6FF725042BDE81040F1
:1017600013460146AFF300802DE9FC4107461C46B5
:1017700015460E46042001F003FF80461048016C18
:10178000406C0F4406440D440444ADF80070ADF8BD
:101790000450ADF80260ADF80640684603F0AEFCB8
:1017A00007E023462A463146384601F07FFC03F025
:1017B00065FC0028F5D1404601F0E2FEBDE8FC8161
:1017C00034DD0020B0F90630B0F90420B0F9021081
:1017D000B0F90000FFF7C8BF2DE9F8431F460446E3
:1017E000DDE9080300920D46024626683946204688
:1017F000B047074603F0B8F88046618A384602F0E1
:101800007BFD384603F084FB404603F081FB002655
:1018100009E0009654F818CF00231A4641462046A6
:10182000E04703F075FB6D1E002DF2DC384603F037
:1018300021FB1E21404603F051FA3846BDE8F883EB
:101840002DE9F041074615460E460C20FFF7DEFE57
:10185000040006D0FFF76CFF0349C0E900170681BA
:1018600045812046BDE8F08168AC000870B514469B
:101870000D46002808D0FFF75BFF016822460B6881
:101880002946BDE87040184770BD70B5044600F0A9
:10189000CDFF051907E000F0DBF9052C00DD05247C
:1018A000204600F0C1FF00F0C1FF2C1A002CF2DC32
:1018B00070BD000000B500F053FA03498A8C104453
:1018C0008884088C488400BD34DD00202DE9FC4765
:1018D000050055D000F044FA374E0746B6F922907D
:1018E00000F050FAB18C8046A1EB0800B0843CE0D7
:1018F00047F6FF71284601F003F982460146284663
:1019000001F0E4F8044696F82C0000F003000128EA
:101910003CD0022836D00020718C6A46081A7084A8
:10192000ADF80000611E0844ADF80400B08CADF8BD
:101930000200791E0844ADF806005146284600F022
:10194000CBFFBDF80200B0845146284600F05EFE91
:10195000054428780A281BD00D2819D0BDF80000AE
:1019600020447084287818B16D1C28780028BFD1D5
:10197000B18C01EB0800B084B08D20F00300B0857D
:10198000BDE8FC8704EBD4704010C5E72046C3E7F0
:1019900096F82C0000F0030001280AD0022808D095
:1019A000308C708428780A28DCD1B08C3844B0841C
:1019B000D8E7A6F82290F5E734DD0020024B5984E1
:1019C0009A84FFF783BF000034DD00202DE9F04149
:1019D00006460A4814460D46B0F92C0040F00200B5
:1019E00000F0C4FD0746224629463046FFF7E6FFD1
:1019F0003846BDE8F04100F0B9BD000034DD0020FC
:101A000047F6FF73AFF300802DE9FC411F46904677
:101A100006000D4617D0002465B1084603F06EFAA3
:101A2000040007D002462946684601F0B9F8684626
:101A300003F064FA3B4642462946304600F09EFFDA
:101A4000204603F05BFABDE8FC8100007CB5064649
:101A50001048036C406C5C1885183188601E08447F
:101A6000ADF80400ADF800407188681E0844ADF878
:101A70000600ADF80250684603F040FB06E02A4637
:101A800021463046FFF7CEFB03F0F8FA0028F6D1E6
:101A90007CBD000034DD00201CB50A4601466846C6
:101AA00001F0A7F82148BDF8002001880A44ADF8EC
:101AB0000020BDF8022080880244ADF80220BDF865
:101AC00004201144ADF80410BDF806100844ADF828
:101AD0000600684603F012FB25E0BDF900400AE06D
:101AE000BDF90210204601F077FABDF90610204634
:101AF00001F072FAA41CBDF90400A042F0DABDF9AD
:101B000002400AE0BDF90000214601F065FABDF986
:101B10000400214601F060FAA41CBDF90600A042B1
:101B2000F0DA03F0ABFA0028D7D11CBD74DD002039
:101B30002DE9FC410F4F0346386C4518796C841829
:101B4000CE18ADF80050ADF80440ADF80260ADF825
:101B50000660684603F0D2FA07E0B86D22463146C7
:101B600003682846984703F089FA0028F5D1BDE8B4
:101B7000FC81000034DD00202DE9FC411C4C256C6B
:101B800094F814C02F18606CAE18ACF1010C441816
:101B9000C518A7EB0C00ADF8000006EB0C00ADF883
:101BA0000400A4EB0C00ADF8020005EB0C00ADF84E
:101BB0000600684603F0A2FA15E032462146384690
:101BC00001F0ECF932462946384601F0E7F96A1E81
:101BD000611C384601F022FA6A1E611C304601F091
:101BE0001DFA03F04BFA0028E7D1BDE8FC810000A4
:101BF00034DD00207CB50E4B1C6C0444586CADF8F1
:101C0000004046188518ADF80440ADF80260ADF804
:101C10000650684603F072FA06E02A46314620462E
:101C200001F0FCF903F02AFA0028F6D17CBD00008F
:101C300034DD002070B50C46054600F07FF810B189
:101C40000121C0E900142846BDE8704002F0AEBD95
:101C500010B5002400E0012400F004F80028FAD1B7
:101C6000204610BD064810B50068002410B180471A
:101C700000B1012402F010FE00B10124204610BD85
:101C8000480000201CB5002100910191694600F038
:101C900048FC04E0FFF7DCFF08B900F0C6FD00983F
:101CA0000028F7D001981CBD7CB5DDE90645CDE9DB
:101CB0000045FFF791FDBDE87C40FFF7E3BF000062
:101CC0002DE9FC410F4D2C6C2718686CA51846189F
:101CD000C418ADF80070ADF80450ADF80260ADF86E
:101CE0000640684603F00AFA07E023462A463146D2
:101CF000384601F0DBF903F0C1F90028F5D1BDE861
:101D0000FC81000034DD002010B501F08DFABDE843
:101D1000104001F0C1BA00000149896949680847CB
:101D200034DD0020002801D002F002BE704710B55B
:101D300001F080FABDE8104001F0AEBA0EB5002106
:101D4000019102912A210091694602F0B7FF0298A1
:101D50000EBD00000148B0F92400704734DD0020BA
:101D600001488069407D704734DD002000F0A6BE48
:101D700010B5044600F0CEFF01462046BDE81040F5
:101D800000F0A4BE0949002091F82C1001F00C02CB
:101D90000649042A896906D0082A01D00C2A01D1F3
:101DA000087D40087047087D401E704734DD0020E4
:101DB000017DC07D4843704770B50D4604F050FB6F
:101DC0000446284604F052FB204370BD70B5174905
:101DD0002E20087000F030FD1648154C0068251DB7
:101DE0002561A064201D01F055FB1348A065134830
:101DF0002561A0610120207502F0C2FDA0870320AB
:101E000084F85C006FF0704020636063002001F094
:101E100067FB6FF07F4001F097FB0948E06101F03C
:101E20005BFA044602F006FE204670BD4500002025
:101E300034DD00205800002048740008847C00082D
:101E4000387400082DE9FC4107461C4615460E462D
:101E5000012000F070FB80461048016C406C0F447C
:101E600006440D440444ADF80070ADF80450ADF8DC
:101E70000260ADF80640684603F040F907E02346EB
:101E80002A463146384601F011F903F0F7F80028E8
:101E9000F5D1404600F04FFBBDE8FC8134DD002069
:101EA00010B520B90948B0F94C0000280CD0FFF754
:101EB0003FFCB0F91800002806D0FFF739FC816814
:101EC0008968BDE81040084710BD000034DD0020DF
:101ED00001490A4600F002B801F0FFFF2DE9FC417C
:101EE00016460D465FEA000830D01948B0F94C702C
:101EF0004046FFF71DFC044600F0F8FA40F6FF707C
:101F0000401903D1B4F90050B4F90260A188681EE9
:101F10000844ADF80400ADF80050E188701E084494
:101F2000ADF80260ADF8060002F0F6FA684603F07C
:101F3000E5F806E032462946404600F0D1F903F0C4
:101F40009DF80028F6D1384600F0DEF8BDE8FC81A7
:101F500034DD00202DE9F0438146884611481249BE
:101F600085B004680C9DB1F94C001E46174698B127
:101F7000FFF7DEFBD0E90721406AA36B0095CDE9AE
:101F80000132CDE9031033463A464146484600F057
:101F900015F905B0BDE8F083886CD0E900218068B0
:101FA000EBE700005800002034DD002010B50400ED
:101FB00013D00A48B0F94C00A04201D100F096FAC3
:101FC0002046FFF7B5FBB0F9180008B100F01CFC83
:101FD0002046BDE81040FFF727BB10BD34DD0020D0
:101FE0002DE9F84F1F46DDF828A0934689460400E6
:101FF0001FD0B4F90000002800DA0020B4F9026014
:102000008046002E00DA002601F020F9411EB4F9C6
:10201000040004F0D3FA054601F01BF9411EB4F99F
:10202000060004F0CBFAA5EB0804641C851B6D1CAC
:1020300008E04FF00008464601F008F9044601F0B8
:1020400008F9054607B96F42002C01DD002D02DCBE
:102050000020BDE8F88F3B46224631464046CDF889
:1020600000A0FFF777FF5FEA000A07D000F02AF828
:102070000746504600F048F800241AE05846494602
:1020800088470120E5E7291BB94202DA504600F0F3
:1020900029F83CB132194146504600F059F85046F3
:1020A000FFF7FEFE5846494688475046FFF710FFA7
:1020B0003C44AC42E7DB5046FFF778FF002000F0DD
:1020C00023F8C5E710B5002118B90548B0F94C0050
:1020D00018B1FFF72DFBB0F90610084610BD00003F
:1020E00034DD002010B50C4620B90648B0F94C008C
:1020F000002806D0FFF71CFBB0F90610A14200DD56
:10210000C48010BD34DD00202DE9F0410F4C0500E6
:10211000B4F94C7008D0FFF70BFB064602F010FB39
:10212000B4F84C0018B108E000F0E0F90BE060688A
:10213000C4F84E00A068C4F85200A4F84C50B06A2D
:10214000A06401F0F9F93846BDE8F08134DD0020E3
:1021500070B516460D4620B91048B0F94C0000285D
:102160001AD0FFF7E5FA36B246802DB20446058054
:1021700001F0E2F9B4F9180000280DD0FFF7D8FA01
:10218000B4F904108180002906D0B4F90610C1808A
:10219000002901D00580468070BD000034DD00209C
:1021A00010B504460448B0F94C00FFF7C1FAC16904
:1021B0002046BDE81040084734DD00202DE9FF4FE0
:1021C00081B01D46DDE90E4B9246DBF83C900026BF
:1021D00002FB09F0C01DC708FFF734FAE10705D17B
:1021E000C11700EB9170801000EB4000002D07DC60
:1021F0002C38B0FBF7F06942884200DD08460546FE
:10220000E00707D10090DDE901012B46524600F0BE
:1022100079FA0646002D03DC002005B0BDE8F08FFA
:1022200005FB07F02C30E10702D0FFF7EAF901E0E7
:10223000FFF7ECF95FEA000819D0FFF779FA019986
:10224000018002994180A0F804A00446C58000F0F6
:10225000FAFFC4E9020726831098E0611198206212
:102260001298C4E9090B0020C4E9049003E016B1F8
:102270003046FFF7D9F94046CFE70000044810B5D3
:10228000B0F94C00FFF754FA406ABDE8104000472F
:1022900034DD002010B504460948B0F94C00FFF7C2
:1022A00047FA018821804188618001888288114431
:1022B000491EA1804188C0880844401EE08010BDAE
:1022C00034DD002010B504460448B0F94C00FFF797
:1022D0002FFA016A2046BDE81040084734DD00208F
:1022E0002DE9F74F8AB0FFF723FA0746B0F9180037
:1022F000B7F906100891D7E9038A4FEADA0107F126
:102300002C050791002860D0FFF712FA81460024BF
:1023100055E000200690D9F80800224606A9436936
:1023200048469847B7F904100646B14243D1A34640
:1023300000E0641CD9F80800621C06A943694846FD
:102340009847B042F5D00020CDE904500120CDF8E7
:102350000C800090CDE9010A0C98A4EB0B0600EB71
:102360000B01731CB7F904200B9800F021FD731CBE
:1023700003FB085522E0DDE9060200FB02520021C2
:10238000CDE904210121CDF80C800091CDE9011A9D
:102390000B9A0C99104421440123324600F008FDA9
:1023A0000698224630440690D9F8080006A94369E9
:1023B000484698470646002EDDD14544641C0898DF
:1023C0008442A6DB0DB0BDE8F08F0020CDE90450BB
:1023D0000120CDF80C800090CDE9010AB7F9042066
:1023E000DDE90B01089B00F0E3FCEBE710B50028EA
:1023F00021D009B30AB3B1F90030B2F90040A342C9
:1024000000DD23460380B1F90230B2F90240A34255
:1024100000DD23464380B1F90430B2F90440A34201
:1024200000DC23468380B1F90630B2F906108B42F6
:1024300000DD1946C18010BD11460A680260496876
:10244000416010BD00280BD003880B4403808388B3
:1024500019448180418811444180C1881144C18060
:102460007047000070B50B4A0020116800290FD09A
:10247000491E02F108041160D4E90051284602F017
:1024800085FB6068012802D1284600F07FF8012012
:1024900070BD000034000020B0F90220B1F9063010
:1024A0009A4213DCB1F90220B0F906309A420DDCF1
:1024B000B0F90020B1F904309A4207DCB1F90010FC
:1024C000B0F90400814201DC012070470020704710
:1024D000014660220148FDF747BE000034DD0020C0
:1024E00060220149FDF740BE34DD002010B500F048
:1024F000E7FF01F055F8BDE8104002F00DB870B5E7
:102500000C46054602F042FB002805D1214628462C
:10251000BDE8704000F042B870BD00F0E1BF01F0CE
:1025200013B80EB5002201922A2202910092694648
:1025300002F0C4FB0EBD01F023B80000024A91690D
:1025400000B190610846704734DD0020024A014620
:10255000907D91757047000034DD0020024A0146ED
:10256000107D11757047000034DD0020024A0146DD
:10257000B2F92C009185704734DD0020024A0146F3
:10258000B2F92A005185704734DD002002494A68BB
:10259000002A00D14860704734000020034AC2E995
:1025A0000001A2F108010120086070473C000020F2
:1025B000014AD269D268104734DD00200149C96957
:1025C0000968084734DD00200149C969496808479E
:1025D00034DD00200149C9698968084734DD0020DD
:1025E0002DE9F041084F04460568F869016828465E
:1025F00088470646F869416828468847284420608D
:102600003046BDE8F081000034DD00202DE9F041C6
:102610000D4606460024064F05E0F869416830463D
:102620008847064404446D1EF7D22046BDE8F08179
:1026300034DD00202DE9F0411F46069D14468846F2
:1026400006462246B068641C3B46D0F804C04146AA
:102650003046E0476D1EF4D1BDE8F08170B5B0F9A9
:1026600000400D1BB0F9021000F11404511A00696A
:102670004FF0FF0201FB0040E91800EBE504491EA2
:10268000C810B0EBE50605F0070301F0070122FAD8
:1026900003F0C1F1070102FA01F22178D5B20FD09F
:1026A0000143761E04F8011B002E05DDFF22314692
:1026B0002046FDF779FD344420782843207070BD12
:1026C00028400143217070BD10B5B0F90030B0F959
:1026D0000240C91A00F114030069121B02FB00300A
:1026E00000EBE10001F0070302788021D9400A43A2
:1026F000027010BDB0F90610026951431430FDF7A5
:102700005ABD00002DE9F047804602F10F0000118C
:10271000450003FB05F01E46174689461430FEF7B8
:1027200075FF04000DD0FFF703F8A0F80080A0F8B3
:1027300002908780C6800449816001218181056102
:102740002046BDE8F087000050AC000870B5B0F935
:102750000660B0F904500B6800F11404964220DDC5
:102760000069AB4202FB004000EBE30419DAA5F17B
:1027700001054FEAE500A0EBE30514F8010B03F0B7
:10278000070200FA02F0C0B208E055B114F8010BDC
:1027900003F10803A5F1010523F007030028F4D095
:1027A00007E0002070BD4FEA40604FEA106003F17F
:1027B00001030206F7D5FF280AD01A4605E04FEAC2
:1027C00040604FEA106002F101024606F7D400E0D3
:1027D000DA1DD043400706D007E014F8010BFF28AC
:1027E0000FD102F108026D1EF7D5A2EB030000F134
:1027F00001000B6070BD4FEA40604FEA106002F1CB
:1028000001020406F7D4F0E710B50446FEF790FF86
:102810008189491E09B28181002904D12046BDE881
:102820001040FEF701BF10BD7047704701480068B7
:10283000704700003000002070472DE9F0419846B5
:1028400016460C4680B3FFF793FA074608F00300DC
:10285000012824D0022816D0B4F90050FFF780FADE
:10286000014608F00C0004282BD00C281DD0B4F928
:10287000020035807080EA19521E0844B280401E62
:10288000F080BDE8F081B4F90400B4F90010401AFA
:10289000C01B401C00EBD07001EB6005DEE7B4F913
:1028A0000400C51B6D1CD9E710E0B4F90600B4F9AB
:1028B0000220801A401A401C00EBD07002EB60002E
:1028C000D7E7B4F90600401A401CD2E72068306010
:1028D00060687060D5E700007CB5064625480D4667
:1028E000006868B1002002F009FC06E06A4629464B
:1028F000304602F03DFF02F0C1FB0028F6D17CBD5E
:10290000106800901C4C50680190BDF80010B4F89D
:1029100040000144ADF80010BDF80220B4F84410A6
:102920000A44ADF80220BDF804201044ADF80400BC
:10293000BDF806000844ADF80600684602F0DEFB6C
:102940000CE0BDF800006084BDF80200A0846A4677
:102950002946304602F00CFF02F090FB0028F0D12F
:1029600034F8220FE18B401A20806088618C401A75
:1029700060807CBD5400002034DD00202DE9FF4F35
:1029800085B000249A4691460E462546DDF814B0DF
:10299000FFF7ECF9804626B130680090706801902E
:1029A00002E06846FFF7BEF919F00C0F02D0564658
:1029B000012713E0BDF902402DE03146059800F0F3
:1029C0009FF80146761A0598FFF720FE05990844FE
:1029D000059005A800F0BBF810B97F1C002EECD1C3
:1029E00009F00C00042804D0082802D00C2812D1C9
:1029F00005E0BDF9061007FB1814641C0BE0BDF9D7
:102A00000600BDF90210421A07FB1820401C00EB1B
:102A1000D07001EB60045646CDF814B046E0314664
:102A2000059800F06DF807460146F61B059800F082
:102A30004DF819F003010ED001290FD0022911D150
:102A4000BDF90420BDF90010521A121A02EBD2721D
:102A500001EB620506E0BDF9005003E0BDF904108A
:102A60000D1A6D1C1449401E28444D84ADF80C000D
:102A7000ADF808508C8404EB0800401EADF80E0041
:102A8000ADF80A4002AA39460598FFF725FF3946F6
:102A90000598FFF7BBFD059908440590FFF760F91D
:102AA000044405A800F053F8002801D1002EB6D147
:102AB00009B0BDE8F08F000034DD002002488169D4
:102AC000087DC97D4843704734DD002073B50C464E
:102AD000009A00257AB109488069006948B1036805
:102AE000104698477CBD6846FFF77AFDFFF714F95A
:102AF0000544641EF7D528467CBD000034DD002067
:102B000073B50D46009A002482B1094880690069B6
:102B100050B14368104698477CBD6846FFF760FD9A
:102B200020B10A2802D0641CAC42F6DB20467CBDF2
:102B300034DD002031B50024009808B905E0641C9C
:102B40006846FFF74DFD0028F9D1204638BD0168E1
:102B500011F8012B12B10A2A02D002E001207047BD
:102B6000016000207047B0F90030B1F900209342B5
:102B700000DA0280B0F90230B1F90220934200DAA3
:102B80004280B0F90430B1F90420934200DD828024
:102B9000B0F90620B1F906108A4200DDC180704705
:102BA00070B5B1F90030B2F90040A34200DC234611
:102BB0000380B1F90250B2F90240A54200DC25467B
:102BC0004580B1F90440B2F90460B44200DD3446F6
:102BD0008480B1F90660B2F906108E4200DC3146FD
:102BE000C1809C4201DBA94201DA002070BD0120B6
:102BF00070BD0B88134403808B889B1A83804B889D
:102C000013444380C988891AC18070472DE9F04177
:102C100006460F460025B0F9000000F06DF888B1B7
:102C2000384600F077F8401CFEF7EBFC040009D0B2
:102C3000FEF77EFD3946FDF7D0FA3046FEF7F9FC87
:102C4000348001252846BDE8F08110B502E000F887
:102C5000011B521E0AB18307F9D1930817D001EB6B
:102C6000014402F0030204EB042405E00460446024
:102C70008460C46010301B1F042BF7DA01E010C021
:102C80005B1E002BFBD102E000F8011B521E002A44
:102C9000FAD110BD10B5830702D520F8021B521ED1
:102CA000530810D001EB0144042B08DB046044609E
:102CB0008460C46010301B1F042BF7DA01E010C0E1
:102CC0005B1E002BFBD1D20700D0018010BD00009D
:102CD00000B908A001B907A102780B789A4207D180
:102CE00010F8012F491C002AF6D10878002800D0DE
:102CF000012070470000000010B502000C464FF0A4
:102D0000000002D01046FEF713FD2146BDE810403A
:102D1000FFF7DEBF4FF0FF3120B110F8012B491C47
:102D2000002AFAD1084670470B4600B51A460146FC
:102D3000FDF768FB4FF0C0414FF438500880012088
:102D4000401E0004000CFBD10D4A10880120401EDB
:102D50000004000CFBD111880120401E0004000C6F
:102D6000FBD112880120401E0004000CFBD101F4AD
:102D7000784001F0FC0140EAC10040EAD22000BDE9
:102D80000000026070477047704770470149896CC6
:102D90000968084734DD0020C0F3C402C0F3852170
:102DA000C0F3C44002EB411101EBC02070470000AA
:102DB0002DE9F04F0546774887B09846149C006887
:102DC0009146002790B1DDE91263159ACDE90263BF
:102DD000CDE90442DDE91023CDE900230468434630
:102DE0004A462846A04707B0BDE8F08FDDE910024B
:102DF00005EB090301EB080C5B1E1043ACF1010C61
:102E0000012807D01298C0F10800CDE90110002078
:102E10000490BBE0604EB6F90620501A002808DD89
:102E2000A8EB0008B8F1000FDDDD1146139A00FB96
:102E30000244B6F90A00ACEB0000002804DDA8EB60
:102E40000008B8F1000FCEDDB6F90800181A002806
:102E500001DDA9EB0009B6F904000022A84233DD28
:102E6000421B1298A9EB020904281FD004DC012898
:102E70000CD0022828D111E0474BB3F904305B1B7A
:102E80002B4408281AD010281ED119E022F0070080
:102E900004EBE204054402F0070215E022F003000F
:102EA00004EBA204054402F003020DE022F001004D
:102EB00004EB6204054402F0010205E0144401E061
:102EC00004EB42041D460022B9F1000F8BDD15987A
:102ED000139BCDE90320CDE9013412980090B06C2A
:102EE00043464A46C4682846A0477CE711990198A2
:102EF000084406902849401E0090B1F906208242FD
:102F00003CDC0846B0F90A100198814236DB002605
:102F1000AA46B34603942FE026B90398082610F872
:102F2000017B0390029937FA01F0129907FA01F731
:102F3000FFB2A6EB010603D11749097B890717D415
:102F4000154949880591159921B131F81010124899
:102F5000418001E010494880109950460AEB010277
:102F6000DDE90031521E00F0A1F80B4905984880B8
:102F700010990BF1010B8A44CB45CDDB0498401C22
:102F80000490069801901398044404984045ADDBE2
:102F900029E700005400002034DD002030B40D4C3F
:102FA000B4F906308B4213DCB4F90A308B420FDBE4
:102FB000B4F90430834200DD1846B4F90830934276
:102FC00000DA1A46824203DBA36C1B6930BC184747
:102FD00030BC704734DD00200F4A30B4B2F90630FF
:102FE0008B4217DCB2F90A308B4213DBB2F90430A2
:102FF00083420FDCB2F9083083420BDB137BDC0722
:1030000013469B6C02D09A6A30BC104752885B6AA8
:1030100030BC184730BC704734DD002030B40D4C54
:10302000B4F90430834213DCB4F9083083420FDB77
:10303000B4F906308B4200DD1946B4F90A309342E8
:1030400000DA1A468A4203DBA36C5B6930BC18477E
:1030500030BC704734DD002000B597B002201090DE
:1030600000200521CDE9110113904FF080511490FB
:10307000CDE915010821CDE902011021CDE90410A7
:103080000190079009020890CDE909010B900C907E
:103090000D9010A80E900F9001A8FEF763F8012183
:1030A0000020FEF74FF817B000BD000030B4104DFF
:1030B000B5F90440844200DD2046B5F90840944249
:1030C00000DA2246824210DBB5F906408C4200DD70
:1030D0002146B5F90A409C4200DA23468B4204DBC4
:1030E000AC6CA469A44630BC604730BC704700009B
:1030F00034DD00202DE9F84F0121080200F0FAFE2E
:1031000001217C2000F00EFF102702248DF80370AF
:10311000DFF800818DF802402603ADF800606946B3
:103120004046FEF7E3F8DFF8F0A0ADF8004069464E
:103130005046FEF7DBF82025ADF8005069463748C9
:10314000FEF7D4F84FF42040ADF80000694634484B
:10315000FEF7CCF803208DF8020018208DF803004C
:103160004CF20370ADF8000069464046FEF7BEF829
:103170004FF68070DFF8AC90ADF800006946484625
:10318000FEF7B4F8ADF8007069464046FEF7AEF8B9
:10319000ADF8005069464046FEF7A8F88020ADF82B
:1031A000000069464046FEF7A1F8A502ADF80050C0
:1031B00069464046FEF79AF831464046FEF7E4F885
:1031C00010214046FEF7E0F820214046FEF7DCF8EB
:1031D00029464046FEF7D8F880214046FEF7D4F84D
:1031E00002215046FEF7D0F88DF8024028208DF8D5
:1031F00003000120ADF8000069465046FEF776F85E
:103200006A20ADF8000069464846FEF76FF8BDE851
:10321000F88F000000140140000801400010014038
:10322000000C014000180140014800887047000070
:1032300034DD0020014840887047000034DD002064
:103240004FF6FF7070474FF4803070474FF4F070C6
:1032500070474FF448707047AFF300802DE9F0419C
:10326000002806D085681DB10668B6F5807F02DDAE
:103270000020BDE8F0810024064F06E055F8240048
:10328000FFF784FD27F81400641CB442F6DB014804
:10329000EFE7000094DD00200149896C4968084788
:1032A00034DD00201F2300F01F01C0F3451210B5CC
:1032B000C0F3C420C1EB0121C2EB02223F24B1FBC9
:1032C000F3F1B2FBF4F2C0EB0020B0FBF3F001EB42
:1032D000022101EB004010BD10B500F02DF900F007
:1032E000E5F8044600F011F8042000F049F940F632
:1032F000FF72002113460846FFF7D8FE002000F0B9
:103300003FF900F0D5F8204610BD7047FFF744BDE7
:103310002DE9FF4F83B01D46DDE91007DDE9124BB3
:10332000DDF8509092460E46042830D005DC012886
:1033300009D0022818D1002025E0082839D010280B
:1033400012D1002051E000200BE0CDE900A908EBEC
:1033500006015B4622460398FDF798F83C4408F1C5
:1033600001008046A842F0DB07B0BDE8F08FCDE950
:1033700000A908EB06015B4622460398FDF782F997
:103380003C4408F101008046A842F0DBECE7002055
:103390000BE0CDE900A908EB06015B462246039845
:1033A000FDF766FA3C4408F101008046A842F0DBD4
:1033B000DAE700200BE008EB060153462246CDF881
:1033C00000900398FDF7DEFA3C4408F101008046C6
:1033D000A842F0DBC8E708EB0601534622460398F3
:1033E000FDF72EF83C4408F101008046A842F2DBCC
:1033F000BAE7000070B514460B4605461A4621464A
:10340000FDF700F8054B611B0020054A5B8801E0D1
:103410001380401C8842FBDD70BD000034DD0020BD
:103420000000026070B5144613460D460A46014678
:10343000FCF7E8FF054B611B0020054A5B8801E0B3
:103440001380401C8842FBDD70BD000034DD00208D
:103450000000026070B5141A15465A1A641C521CFA
:1034600054430A462946FCF7CDFF054A002005498A
:10347000528801E00A80401CA042FBD370BD0000CE
:1034800034DD002000000260FFF7DABE89B280B2AE
:10349000FFF74ABC00210180418040F2DF118180AA
:1034A00040F21F31C1807047FFF7FCBE002070471B
:1034B0007047704789B280B2FDF7AEBA704700001E
:1034C00005480168054881640021A0F84C10011DE1
:1034D000016100F031B800005800002034DD002008
:1034E000064910B54A6B824206D04863FFF74EFC8E
:1034F000BDE8104000F004B810BD000034DD00202D
:1035000010B50446002002F061FF024921F8104086
:1035100010BD000034DD00207CB5064C0546A06CD3
:10352000026A684690476A462946201DFFF738FB25
:103530007CBD000034DD00200248816C001D096A5A
:103540000847000034DD0020064910B50A6B8242AE
:1035500006D00863FFF71AFCBDE8104000F004B87D
:1035600010BD000034DD002010B50446012002F03B
:103570002DFF024921F8104010BD000034DD00206D
:10358000064910B50246087B80EA02035B0703D5B3
:103590000B884C880C804B800A7310BD34DD0020F2
:1035A00010B5064C206BFFF7F1FBFFF7DDFF606BFA
:1035B000FFF7ECFBBDE81040FFF7A2BF34DD0020B1
:1035C00070B50A4C00214FF40043251D9A100606E1
:1035D00001D5236000E02B604006000E2A602260C7
:1035E000491CC9B20829F2D370BD0000100C01407B
:1035F00008B54FF4E1520BE0ADF8002004E0BDF84F
:103600000010491EADF80010BDF800100029F6D1D9
:10361000401EF1D208BD000070B51D4614464B197E
:103620000A4601195B1E491E049EFCF7EBFE0020B2
:1036300003496C4301E00E80401C8442FBD870BDFE
:1036400000000260F8B5FFF755FDFFF705FDFF49E3
:10365000202048610402FE4D21462846FDF792FED7
:103660006420FFF7C5FF21462846FDF78DFE642044
:10367000FFF7BEFF112000F08FFC2820FFF7B8FFF6
:10368000B02000F089FC042000F09AFCB32000F088
:1036900083FC102000F094FC002000F091FC00203E
:1036A00000F08EFCB62000F077FC522000F088FC81
:1036B000832000F085FCB72000F06EFC802000F035
:1036C0007FFC722000F07CFC112000F079FC2520AA
:1036D00000F076FCB82000F05FFC002000F070FCE9
:1036E0000F2000F06DFC0F2000F06AFCFF2000F0BE
:1036F00067FCFF2000F064FCC82000F061FCC820DB
:1037000000F05EFC022000F05BFC182000F058FC8A
:10371000102000F055FC102000F052FC372000F083
:103720004FFC5A2000F04CFC872000F049FCBE20E2
:1037300000F046FCFF2000F043FC002000F040FCBD
:10374000002000F03DFC002000F03AFC002000F0DA
:1037500037FCB92000F020FC002000F031FC0020F4
:1037600000F02EFC002000F02BFC002000F028FCD4
:10377000BD2000F011FC002000F022FCC02000F071
:103780000BFC022000F01CFC762000F019FCC1208C
:1037900000F002FC632000F013FC312000F010FC6C
:1037A000002000F00DFC272000F00AFC272000F08C
:1037B00007FC322000F004FC122000F001FC28205D
:1037C00000F0FEFB4E2000F0FBFB102000F0F8FBA9
:1037D000A52000F0F5FB0F2000F0F2FB582000F0D0
:1037E000EFFB212000F0ECFB012000F0E9FBC22000
:1037F00000F0D2FB282000F0E3FB062000F0E0FB05
:10380000062000F0DDFB012000F0DAFB032000F0D1
:10381000D7FB002000F0D4FBC32000F0BDFB40200C
:1038200000F0CEFB002000F0CBFB032000F0C8FB33
:10383000C42000F0B1FB002000F0C2FB012000F02A
:10384000BFFBC62000F0A8FB002000F0B9FB002061
:1038500000F0B6FBC72000F09FFB112000F0B0FB8A
:103860008D2000F0ADFBA02000F0AAFBF52000F0B9
:10387000A7FB272000F0A4FBC82000F08DFB02204E
:1038800000F09EFB132000F09BFB182000F098FB3B
:10389000252000F095FB342000F092FB4E2000F034
:1038A0008FFB362000F08CFB232000F089FB1720D3
:1038B00000F086FB0E2000F083FB0C2000F080FB64
:1038C000022000F07DFB022000F07AFB132000F0C4
:1038D00077FB182000F074FB252000F071FB3420EA
:1038E00000F06EFB4E2000F06BFB362000F068FB12
:1038F000232000F065FB172000F062FB0E2000F093
:103900005FFB0C2000F05CFB022000F059FBC9209B
:1039100000F042FB022000F053FB132000F050FBAC
:10392000182000F04DFB252000F04AFB342000F069
:1039300047FB4E2000F044FB362000F041FB2320E3
:1039400000F03EFB172000F03BFB0E2000F038FBA0
:103950000C2000F035FB022000F032FB022000F0CA
:103960002FFB132000F02CFB182000F029FB252052
:1039700000F026FB342000F023FB4E2000F020FB5B
:10398000362000F01DFB232000F01AFB172000F06A
:1039900017FB0E2000F014FB0C2000F011FB02209E
:1039A00000F00EFBCA2000F0F7FA022000F008FB3E
:1039B000132000F005FB182000F002FB252000F08A
:1039C000FFFA342000F0FCFA4E2000F0F9FA36201D
:1039D00000F0F6FA232000F0F3FA172000F0F0FAD6
:1039E0000E2000F0EDFA0C2000F0EAFA022000F0C0
:1039F000E7FA022000F0E4FA132000F0E1FA1820C0
:103A000000F0DEFA252000F0DBFA342000F0D8FACE
:103A10004E2000F0D5FA362000F0D2FA232000F034
:103A2000CFFA172000F0CCFA0E2000F0C9FA0C20D3
:103A300000F0C6FA022000F0C3FAD02000F0ACFA81
:103A4000A92000F0BDFA032004E0000000100140AE
:103A50000014014000F0B4FACC2000F0B1FAA52027
:103A600000F0AEFA002000F0ABFA532000F0A8FA04
:103A7000202000F0A5FA102000F0A2FA012000F0AA
:103A80009FFA002000F09CFA012000F099FA012032
:103A900000F096FA002000F093FA032000F090FA6C
:103AA000012000F08DFA002000F08AFAD12000F009
:103AB00073FA182000F084FA0C2000F081FA232019
:103AC00000F07EFA032000F07BFA752000F078FA0F
:103AD000022000F075FA502000F072FAD32000F0B6
:103AE0005BFA332000F06CFAD52000F055FA2A205A
:103AF00000F066FA2A2000F063FAD62000F04CFAB3
:103B0000282000F05DFAD72000F046FA012000F0EE
:103B100057FA002000F054FAAA2000F051FAC02011
:103B200000F04EFA2A2000F04BFA2C2000F048FA60
:103B3000222000F045FA122000F042FA712000F035
:103B40003FFA0A2000F03CFA122000F039FA002077
:103B500000F036FAA02000F033FA002000F030FA2E
:103B6000032000F02DFAD82000F016FA442000F0CF
:103B700027FA442000F024FA222000F021FA442001
:103B800000F01EFA212000F01BFA462000F018FA7F
:103B9000422000F015FA402000F012FAD92000F07F
:103BA000FBF9CF2000F00CFA2D2000F009FA51208B
:103BB00000F006FADA2000F0EFF9012000F000FA38
:103BC000DE2000F0E9F9012000F0FAF9512000F0C0
:103BD000F7F9E12000F0E0F9002000F0F1F9002011
:103BE00000F0EEF9002000F0EBF9002000F0E8F919
:103BF000002000F0E5F9002000F0E2F9E62000F0F6
:103C0000CBF9552000F0DCF9F32000F0C5F90620CF
:103C100000F0D6F9002000F0D3F9002000F0D0F930
:103C2000242000F0CDF9002000F0CAF9F82000F0BF
:103C3000B3F9002000F0C4F9FA2000F0ADF901203A
:103C400000F0BEF9FB2000F0A7F9002000F0B8F961
:103C5000002000F0B5F9002000F0B2F9FC2000F0DF
:103C60009BF9002000F0ACF9002000F0A9F9002039
:103C700000F0A6F9002000F0A3F9002000F0A0F960
:103C8000FD2000F089F9002000F09AF9002000F0F2
:103C900097F9702000F094F9002000F091F972205B
:103CA00000F08EF9312000F08BF9372000F088F910
:103CB000702000F085F9322000F082F9312000F008
:103CC0007FF9072000F07CF9002000F079F900204E
:103CD00000F076F9FE2000F05FF9002000F070F9A6
:103CE000002000F06DF9002000F06AF9002000F0DB
:103CF00067F9202000F064F9B02000F04DF90420AD
:103D000000F05EF92820FFF773FC352000F044F93D
:103D1000002000F055F9442000F03EF9002000F0AA
:103D20004FF9362000F038F9002000F049F93A2028
:103D300000F032F9772000F043F92A2000F02CF946
:103D4000002000F03DF9002000F03AF9012000F0D9
:103D500037F9DF2000F034F92B2000F01DF90020A6
:103D600000F02EF9002000F02BF9032000F028F9D4
:103D70001F2000F025F9292000F00EF90A20FFF796
:103D800037FC2C2000F008F90A20FFF731FC3E48F0
:103D900002260660362000F0FFF8082000F010F937
:103DA0004FF0C045E2202880384C3420208001208C
:103DB000208004202080E020288001202080032013
:103DC000FFF716FCE0202880032020800520FFF765
:103DD0000FFC012028800520FFF70AFCE620288040
:103DE000012020806020208094202080B020288026
:103DF000242020800020208001202080DF202080BF
:103E0000032020801F202080002020800520FFF735
:103E1000EFFBB420288026804420208000202080D2
:103E2000142020800C202080002020800120208071
:103E300000202080B620288003202080522020806F
:103E400000202080192020800C202080002020804D
:103E5000012020803620288000202080F02028802B
:103E6000032020800520FFF7C3FB292028800520A0
:103E7000FFF7BEFB4FF478406423002100901A4600
:103E80000846FFF7C9FBF8BD1008014000000260BA
:103E90007CB500F075FD114900F031FF00F070FDB8
:103EA0000024034600940E4A10210E480194FDF7A9
:103EB00093FC0546012101F000F800F061FD034686
:103EC0000094094A052109480194FDF7EDFE2846B2
:103ED000BDE87C400021FDF7ADBE0000BD6E0008CE
:103EE0001D6F00084072000891700008C073000840
:103EF00070470000044A0029516901D0014300E0E5
:103F0000814351617047000000100240044A0029BB
:103F1000D16901D0014300E08143D16170470000C5
:103F200000100240044A0029916901D0014300E0D9
:103F300081439161704700000010024070474FF4C8
:103F40000030FCF783BF7047704770470029018835
:103F500002D041F0400101E021F0400101807047B2
:103F600030B502884C8802F441530A88CD88224338
:103F70008C882C4322430C8922434C8922438C8910
:103F80002243CC8922431A430280828B22F40062AE
:103F90008283098A018230BD30B5074D20246C61CF
:103FA000064AA102116089101160121F1160C0B28F
:103FB000FFF706FB2C6130BD00100140140C0140DE
:103FC00030B5074D20246C61064AA10211608910AA
:103FD000131D19601160C0B2FFF7F2FA2C6130BDF9
:103FE00000100140100C01400CB500222648009240
:103FF0000192016841F4803101604FF4A0630168CF
:1040000001F4003101910099491C0091019911B905
:1040100000999942F3D10168890333D501210191B7
:104020001A490A6842F010020A600A6822F0030284
:104030000A600A6842F002020A6041684160416811
:104040004160416841F480614160416821F47C1124
:104050004160416841F4E8114160016841F08071BC
:10406000016001688901FCD5416821F003014160CC
:10407000416841F0020141604168C1F381010229B8
:10408000FAD10CBD01920CBD00100240002002408C
:1040900002480168491C01607047000030000020A0
:1040A0000F4810B5016841F00101016041680D4AF7
:1040B0001140416001680C4A11400160016821F41F
:1040C00080210160416821F4FE0141604FF41F012D
:1040D0008160FFF789FF05494FF00060086010BD5F
:1040E000001002400000FFF8FFFFF6FE08ED00E0C0
:1040F0007047704770477047704770477047704708
:10410000F0B587B001210820FFF70CFF0121102036
:10411000FFF708FF01212020FFF704FF012188039A
:10412000FFF7F4FE4FF46040ADF8000001258DF874
:1041300002501820284E8DF8030069463046FDF7DE
:10414000D5F82C03ADF800408DF8025010278DF8FB
:10415000037069463046FDF7C9F8ADF80070482095
:104160008DF8030069461D48FDF7C0F8ADF8004022
:104170008DF802501A4D8DF8037069462846FDF7F8
:10418000B5F821462846FDF7FFF80022ADF80420D7
:104190004FF48270ADF80600ADF80C20E010ADF8D9
:1041A0000E002820ADF8100007200E4DADF80820B5
:1041B000ADF81400ADF80A20ADF8122001A9284688
:1041C000FFF7CEFE01212846FFF7C0FE214630460C
:1041D000FDF7D8F807B0F0BD000C01400010014019
:1041E0000014014000380040704770477047704726
:1041F00070B50D4604000CD0FDF79AFAC28C11463A
:10420000AA43914205D0C2842046BDE8704000F028
:104210008ABC70BD1CB5684600F08AFB684602F097
:104220004DFD1CBD38B50C460546FDF781FA2168E9
:1042300016293AD008DC0D292ED0112921D01429B5
:1042400052D0152956D119E01F2931D0202946D046
:10425000B1F5407F4ED1016A4A69A168016248699F
:10426000141A2846FDF764FA624223461146009468
:1042700001F016F9284600F056FC38E0B0F92400A9
:1042800024E090F82600C00634D5A068007A80B3F8
:10429000284600F0A7FD2DE0A068806848B3007AAA
:1042A00038B3284600F084F921E0218981841EE09A
:1042B000A168C08C01290BD020F00101284600F034
:1042C0002DF80921284600F059FC0020A0600EE0DE
:1042D00040F00101284600F021F80821F2E790F8AB
:1042E0002600C0F30010F1E7A16800F0C3F8002039
:1042F00038BDFFE70120FBE770B50C4605000CD088
:10430000FDF716FAC28C34EA020106D02243C284B9
:104310002846BDE8704000F006BC70BD70B50C4684
:104320000546FDF705FAC18CA14205D0C484284694
:10433000BDE8704000F0F7BB70BD0021AFF3008016
:104340007CB50C00054603D1684600F0F1FA6C46D6
:1043500095F82600000705D522466946284600F054
:104360009FF86C462146284601F034FD002803D012
:10437000286AC168204688477CBD00002DE9FC41C1
:1043800017463B4A06461D4610690C46F8B121689F
:10439000009161680191BDF8003032F8401F0B4474
:1043A000ADF80030BDF8023092881344ADF8023009
:1043B000BDF804301944ADF80410BDF806101144DE
:1043C000ADF806106946FEF767F800284DD0E6B351
:1043D0003078D0B32A4639466846FEF7E1FBBDF98E
:1043E0000230B4F904205B1EB4F90210B4F90000E5
:1043F000FDF7BAF9BDF90020BDF90630521EBDF92E
:104400000210B4F90000FDF7AFF9BDF90400BDF9E1
:104410000630B4F90420BDF90210401CFDF7A4F9E0
:10442000BDF90610B4F90630B4F90420491CB4F9FA
:104430000000FDF799F9384600F060FD04460020C1
:10444000FEF79CF8B5F9022000E009E0B5F900108C
:104450003046FDF7B3FA2046BDE8FC4100F04EBD02
:104460002046BDE8FC41FDF7ADB9BDE8FC81000088
:1044700034DD002070B50D46044600F0D9FD206AF9
:1044800029464269BDE870400846FEF7B2BB00000D
:10449000024B1B680362C28481847047BC00002009
:1044A00030B5858800881488281AD5889388451BDC
:1044B0000D805288801A88804C80CB8030BD0000EF
:1044C0002DE9FF4104461D461646408A1422114B31
:1044D0000A9F03920091CDE90103B4F90C00B4F9ED
:1044E00010304119B4F90A00B4F90E20304400F03C
:1044F00097F806000AD0FDF71BF90546B4F9081035
:104500001022FFF7C5FF0020AF62A88504B0304637
:10451000BDE8F081E16D0008014901200870704795
:10452000C40000202DE9F0410C0006461CD0B44226
:104530001AD0FDF7FDF807462046FDF7F9F80546C5
:10454000B7F91600A0420FD0304600F07FF921469F
:10455000304600F037FEB5F90220B5F900103046BC
:10456000BDE8F04100F008BBBDE8F0812DE9F04165
:1045700007001AD0FDF7DCF80646384600F09CFD2F
:10458000040012D0384600F019FAFDF7D1F80546BC
:104590002046FDF7CDF8718B4183288B70832F83E4
:1045A0003046BDE8F04100F07DBABDE8F081000082
:1045B00070B5050021D0FDF7BBF80446B0F91A002C
:1045C00000281AD0217F090704D4FDF7B1F8007F35
:1045D000000712D4B4F91640284600F013FF214614
:1045E000284600F0EFFD284600F09DFA2846BDE879
:1045F00070400022014900F093B970BDF9700008C5
:104600002DE9FF410AAF0DF1040870CF0027009794
:10461000A8E8700000F004F804B0BDE8F0810000E4
:104620002DE9F84F454C8046DDE90A65A089DDF8A3
:1046300034B0994692460F4605432EB9A08818B16A
:1046400004F10A00B0F90060701C0DD0DEB13046F4
:10465000FDF76EF8B0F90010B0F902208844174455
:10466000BAF1000F02D006E000260CE0B0F90430E9
:10467000591A01F1010AB9F1000F04D1B0F906008D
:10468000801A00F101090BF12000FCF7BFFF009038
:10469000F0B3A088A346401CA0800098FDF748F81E
:1046A000A0F8008008EB0A014780491E818007EBD3
:1046B0000901491EC1800C9901610446818B43F6B2
:1046C0008F7028400143A183BBF90800009F58B1B7
:1046D000FDF72EF880463846FDF72AF8B8F8141092
:1046E0008182A8F8147001E0ABF808703146009898
:1046F00000F068FDA80602D5009800F0C5FAE807AA
:1047000005D0DBF8241001F10101CBF8241000E002
:1047100011E0680602D50098FFF728FFA80706D524
:10472000A08B40F00200A083009800F0FCF901216A
:10473000009800F0ADFE0098BDE8F88FC40000209E
:10474000024900200870FEF7F7BE0000C4000020F8
:1047500070B5B0F90450044686682846FCF7E8FFB7
:1047600002462068172811D004DC0E2810D0142827
:1047700009D104E0222811D0282804D111E03146C3
:10478000104600F055FC0020A06070BDA56070BD13
:1047900021462846BDE8704000F0A2BA6FF0704094
:1047A000F2E72846BDE8704000F0BDB970B50400DE
:1047B00049D000F071FD002845D02046FCF7B8FF35
:1047C000214E05460020B082B6F91010A14200D15A
:1047D0003082B6F90E10A14200D1F0812246B169B3
:1047E00005E0B1F90430934200D1888009680029BE
:1047F000F7D10721104600F0C1F9B5F9180000F013
:1048000085FF0B21204600F043FE204600F0E4FB2C
:10481000204600F0DDFDA88BC10703D0716AA1F12D
:1048200001017162800602D5F088401EF080B088D8
:10483000401EB0802046FCF7F7FEB6F90800BDE840
:10484000704000F021BA70BDC400002070B50500B2
:1048500016D0FCF76DFFB0F91640002C10D028469A
:1048600000F0BAFB2046FCF763FFB0F90210B0F984
:1048700000004A4241422846BDE8704000F07CB941
:1048800070BD10B5002806D0FCF752FF818B4DF6A5
:10489000FB721140818310BD10B5002400E001249B
:1048A00000F004F80028FAD1204610BDF0B51A4EE9
:1048B00099B0306A00B180471848006808B1804755
:1048C00010B9FDF7CFFD10B1012019B0F0BD30785F
:1048D000F8B1F088E8B1B6F9145001240DB9B6F971
:1048E00008506846FDF7FCFD0BE02846FCF720FF6A
:1048F00007460146284602F055F800B1641EB7F994
:1049000014500DB1002CF0D1B5826846FDF7E0FDE2
:10491000DAE70020D9E70000C40000204C000020A6
:1049200000F06BBB0148B0F93C00704734DD00205B
:1049300001460448B0F9000010B90348B0F93C0042
:1049400000F004B8D600002034DD002010B50C467D
:10495000002808D0002C06D0FCF7EAFE2146BDE86E
:10496000104000F065BB10BD0EB50021029117216B
:104970000091694600F0A2F9029800B20EBD000055
:104980000148B0F900007047CE00002002004FF04F
:10499000000002D0104601F026BD704710B5002877
:1049A00003D0FCF7C5FEB0F9180010BD0EB51521F7
:1049B0000091694600F082F902980EBD10B50028FA
:1049C00003D0FCF7B5FEB0F9160010BD10B50C46CB
:1049D000002809D0002C07D0FCF7AAFE002803D03D
:1049E000016821604068606010BD10B501F0F6FC00
:1049F000FCF79EFEB0F90410B0F90000081A401C44
:104A000010BD10B501F0EAFCFCF792FEB0F90610FB
:104A1000B0F90200081A401C10BD00000449B1F9A9
:104A20000010884201D1012070470020704700002B
:104A3000D20000203EB5164CA078002827D1154999
:104A40002081A0828863E080A08013490222CDE902
:104A5000002140F6FF72029013460146FFF7D0FD99
:104A600004F10A0504F11C0228806FF07041116006
:104A700000F059F8094800F07FFA094800F07CFA84
:104A8000B5F9000000F000F901202070A0703EBDD3
:104A9000C400002034DD00202D710008F400002047
:104AA000FC00002070B505460748B0F9084008E052
:104AB0002946204601F034FD2046FCF739FEB0F9C6
:104AC0001440002CF4D170BDC40000207FB50D4609
:104AD000060023D0FCF72CFE848BA1071ED5D0E95D
:104AE0000012CDE9001255B129680291696803915D
:104AF00002A900F049FA02A96846FEF734F83146E7
:104B0000684600F049FA002808D040F60100044049
:104B1000012C04D06946304601F002FD7FBD684695
:104B2000FFF7C0FF7FBD0021FFF7D0BF70B50400C5
:104B300011D0FFF7F8FF2046FFF730FF044608E0EA
:104B40002046FCF7F5FD05462046FFF7EFFFB5F9D7
:104B50001A40002CF4D170BD0EB502004FF00000D9
:104B600007D00290202000906946104600F0A6F879
:104B700002980EBD00F090BB00F0A2BB0EB526223D
:104B800002910092694600F0ABF80EBD00B50A4AEA
:104B900003460020B2F9002085B0002A0AD00E207A
:104BA000009003A80290CDE903316946104600F059
:104BB0004BFC012005B000BDD4000020F0B5164626
:104BC000074689B00D4651EA06005BD0002F59D048
:104BD0003846FCF7ADFD0446D4E90001CDE90201F9
:104BE000CDE9050185B1A08B010608D5800506D465
:104BF000BDF81400A0EB0500ADF8140004E0BDF80A
:104C000018002844ADF818007EB1A08BC10507D567
:104C1000400505D4BDF81600801BADF8160004E071
:104C2000BDF81A003044ADF81A0005AA02A907A879
:104C3000FDF7DCFBDDE90501C4E9000107A8FFF78A
:104C400031FFBDF91A00BDF90E10401A0090BDF9F0
:104C50001800BDF90C10431ABDF91600BDF90A1071
:104C6000421ABDF91400BDF90810411A204600F09F
:104C700017FC214604F10800FDF775FF05213846B1
:104C800000F006FC09B0F0BD70B50A4CB4F93C6008
:104C900010B90948B0F90800A087FCF749FD05469E
:104CA000FEF74AFCB5F900002064B5F90200606423
:104CB000304670BD34DD0020C400002070B50D46C4
:104CC00004000AD0FCF734FD0169002905D0AC804E
:104CD00002692846BDE87040104770BD00F0C4BBB3
:104CE00070B50C00054609D0FFF768FE002805D016
:104CF000E5802146BDE87040FFF7E0BF70BD70B5AC
:104D00000E4605004FF0000406D0FCF711FD0469C3
:104D100006612846FFF707FF204670BD70B5064EB6
:104D200004460D46B6F90000A04201D000F040FB59
:104D300002483480057070BDD2000020EC000020D5
:104D40002DE9FF4116460C460746FFF767FE1F4D4B
:104D500050B32846B5F900202168B0F902008D1A39
:104D600061680C1A4EB302A93846FFF72FFE384689
:104D7000FFF724FE6946FFF729FE2246294602A8CE
:104D8000FDF760FB694632460846FDF732FF69468B
:104D900002A8FDF781FB002804D0224629463846A8
:104DA000FFF7EAFEBDE8FF8101213846FFF7B6FFB5
:104DB00020882880A0886880F4E704B0224629462D
:104DC0003846BDE8F041FFF7D7BE0000EE000020F6
:104DD00010B5FCF76DFA02490020886310BD000091
:104DE00034DD00202DE9FF4107004FF00000009066
:104DF0000190029036D01E4CB4F90000874231D0A9
:104E0000ADF80C001F21ADF80E70009110B169468D
:104E1000FFF754FF01200290278069463846FFF7CC
:104E20004DFF029E03AC21252EB11CE06946009582
:104E30000294FFF743FF3846FFF7C0FD0700F5D1A6
:104E4000BDF90C703846FFF795FE28B90BE06946AE
:104E500000950294FFF732FF3846FFF7AFFD0700D9
:104E6000F5D100E0012604B03046BDE8F081000035
:104E7000D400002070B506004FF000001AD0304674
:104E800000F0ECF80146304601F0CBFA05462C461E
:104E900006E02146304601F0C4FA0446A84204D098
:104EA000FFF75AFE08B9002CF3D12046FFF79AFF0E
:104EB00008B1002070BD204670BD70B50C460500DD
:104EC0001BD0FCF735FC818B4FEA017224B1002A1C
:104ED00007DB41F0080203E0002A02DA21F00802B1
:104EE0008283808B884208D02846FFF767FD014601
:104EF0002846BDE87040FFF715BB70BD034910B5EB
:104F00008C6B886300F016F8204610BD34DD00205D
:104F100010B504000CD0FCF70BFC818B8A0707D47A
:104F200041F0020181832046BDE81040FFF7FEBD3D
:104F300010BD00001CB50D4C207820B1BDE81C4010
:104F40000B4801F021BE0B48B0F93C00FCF7F0FB28
:104F5000D0E90010CDE90010B4F9121011B1684683
:104F600000F01AF8684601F00FFE1CBDC4000020D6
:104F70009CDF002034DD002002490A6802600860DE
:104F800070470000DC0000200B46B0F90220B0F9A9
:104F900000101846FDF756BA2DE9F0410E460746B7
:104FA0003046FCF7C5FB0446007F800710D521463C
:104FB0003846FDF7D8FDB4F916500DB12E46EFE78F
:104FC0000448B0F90000B04202D10120BDE8F081F0
:104FD0000020FBE7CE00002070B50546FCF7A8FBDB
:104FE0000446C08A002807D0284600F00BFA204665
:104FF000FFF758FD0020E08270BD2DE9F041164614
:105000000D46FCF795FBB0F918400DE02046FCF783
:105010008FFB074631462046A847324629462046A0
:10502000FFF77EFCB7F91A40002CEFD1BDE8F08104
:1050300000224A800A8082880388D21A8A80C28825
:105040004088101AC880704710B5FFF7B7FC0028D9
:1050500003D0FCF76DFBB0F9180010BD70B5064D1C
:1050600001460024B5F9000000F0FEF808B1B5F9DA
:105070000040204670BD0000D40000200C4810B550
:105080000078002806D00B4C6069012803DD401E23
:105090006061002010BD2069401C206101F004F80F
:1050A00018B1FFF747FF012010BD6069EFE700006E
:1050B000C400002094DF002070B50546FFF7C4FF50
:1050C00009E0AC4201D1002407E0FCF731FBB0F964
:1050D0001A00A84201D00400F3D1204670BDB0F9F7
:1050E0000410B0F90000081A401C7047B0F906100F
:1050F000B0F90200081A401C704700002DE9FF417A
:105100002D4E8046307848B12C4D6869401C68614E
:10511000012806DD012004B0BDE8F081FFF70AFF99
:10512000F8E7274FB7F93C00FCF702FB04464FF0C5
:10513000FF302861707820B1A0680090E06801908D
:1051400006E0207F800732D5D4E90001CDE90001D7
:105150005FEA080003D001466846FDF704FDB96B1D
:1051600089B10A68029249680391B6F91210204683
:1051700011B10846FCF7DCFA02A9FFF705FF02A906
:105180006846FDF7F0FCB6F9121019B16846FFF752
:1051900003FF60B1B7F93C106846FFF7FDFE30B180
:1051A000DDE90001C5E90001FFF768FFB3E76869C1
:1051B000401E68610020AEE7C400002094DF00209C
:1051C00034DD00202DE9F0470C00064619D0FCF72D
:1051D000AFFA054600206883EC822046FCF7A8FA67
:1051E0000746287F00F00808B7F918005FEA0009B1
:1051F00006D0FCF79DFA0446B8F1000F03D008E092
:105200003E83BDE8F087207F000702D5A5F81A90FD
:10521000F6E7B4F91A7037B13846FCF789FAB8F1F5
:10522000000F02D007E06683EBE7017F090702D594
:1052300066836F83E5E70446EBE770B50C4600250F
:1052400050B14CB1FCF774FAB0F91600A04201D18C
:10525000012501E00028F5D1284670BD884201D122
:1052600001207047FFF7E9BF70B50D46002438B143
:10527000FCF75EFA20B1B0F91600A84200D1012473
:10528000204670BD10B50124FCF752FA007FC0061D
:1052900000D50024204610BD10B504460748B0F9DB
:1052A000080007E0A04201D1012010BDFCF740FA40
:1052B000B0F914000028F5D110BD0000C400002092
:1052C0002DE9FC4116460F46050024D0FCF730FAC4
:1052D00004463246D4E90001CDE9000139462046B2
:1052E000FDF7B0F83246394604F10800FDF7AAF898
:1052F000B4F918003246394601F064F9207F80077E
:1053000005D52046FFF7CEFB6846FFF7CBFB032110
:10531000284600F0BDF8BDE8FC81000070B5446887
:10532000B0F9002040F60101A08B0840012803D00D
:105330002146104601F07AFB1448406A002823D029
:10534000204601F0DBFBB4F91660B4F91A4019E00D
:105350002046FCF7EDF90546007FC043800703D1E6
:105360002946204601F098FB284601F0C7FBB5F915
:105370001A40002CECD13046FCF7DAF9B0F91A40AB
:10538000B0F91660002EF4D170BD0000C4000020FA
:10539000B0F90010B0F90420914205DCB0F9021018
:1053A000B0F90600814201DD0020704701207047FE
:1053B0003EB5064CB4F90000002806D01821009133
:1053C0006946FFF77BFC002020803EBDD200002014
:1053D00070B505460A48B0F908000DE0FCF7A8F9D9
:1053E000B0F914100446A94205D12846FCF7A0F9EB
:1053F000808AA08270BD08460028EFD170BD0000F1
:10540000C400002070B50546FCF792F90446B0F9D7
:10541000160000280AD0FCF78BF90646B0F91800F0
:10542000A8420ED1FCF784F9408B308370BDFCF7A5
:105430007FF90146B0F91A00A84202D1608B488377
:1054400070BD0028F3D170BD70B50C460546FCF761
:105450006FF9A5800269204612B1BDE8704010477F
:10546000BDE87040FFF774B93EB5054600200090D6
:10547000019002900C462846FCF75AF90169002970
:1054800005D0ADF8045000940169684688473EBDD8
:105490000EB50091ADF804006946FFF70FFC0EBD94
:1054A0002DE9FF5FB0F91800DDF838A01F469146DE
:1054B00088465FEA000B59D0FCF73AF90646818B23
:1054C000D6E9003401F4207025461A46802809D018
:1054D000B0F5207F02EB080005D060F30F0204EB6B
:1054E000080003E0D01960F30F02E01960F30F0425
:1054F00001F4A060B0F5807F09D0B0F5A06F09EB92
:10550000224006D060F31F4209EB244005E00AEB7D
:10551000224060F31F420AEB244060F31F4410B2A4
:1055200019B2CDE90210411A10141A14CDE9002065
:10553000821A51EA020002D05846FFF71DFB039879
:1055400021B2091A02982AB2101A091A0198C0EB5E
:1055500024420098C0EB2540121A51EA020002D002
:105560005846FFF72BFBB6F91A00A2E7BDE8FF9FEC
:10557000704700002DE9F041044600F07FF8DFF8A5
:10558000C080E41C24F00304D8F81000A04255DBCE
:105590002C4E012040F2025100EB400206EB820249
:1055A000526852B1401C8842F6DB0025F5B3204614
:1055B00000F050FD411C02D006E005B2F6E720469F
:1055C00000F066F8411C39D000EB400106EB810287
:1055D00056F82130516805EB450703EB010C06EB4B
:1055E000870311895C6046F827C0198121B101EB5E
:1055F000410106EB81014D8158811581D8F80000E9
:105600004146401CC8F80000D8F80400401EC8F805
:105610000400D8F80820824200DD8860C868204471
:10562000C8600869001B08614A6900E006E0824220
:1056300001DDC8F814002846BDE8F0810020FBE732
:105640001CDD002004A1002070B50C46154606465E
:105650004FF48071FEF7CCFD207F800703D52946EB
:105660003046FFF78BFA022D05D1B4F92400BDE8CE
:105670007040FCF78BBF70BD012070470348007875
:10568000002801D1FCF716B8704700004400002044
:105690002DE9F04781464FF0FF380020194F19E0FF
:1056A00057F82100516806EB4605014457F82500DC
:1056B000441A4C450DDA64B11349014407EB8500E7
:1056C0004268081BFAF750FD57F82500001B47F801
:1056D0002500304600EB400107EB81021689002EC1
:1056E000DED100EB400207EB810157F82220496828
:1056F0001144C1F520424A4500DB80460FFA88F08C
:10570000BDE8F08704A100200401002070B5044624
:1057100008E02046FCF70CF8B0F91A502046FFF7D5
:1057200045F82C46002CF4D170BD70B50546B1F992
:1057300028000C46002819D0FBF7FAFF0646216C1A
:10574000FCF764FF04463046FAF740FDA0420DD94D
:1057500034442046FCF738FF21182046FAF73DFD77
:105760002846BDE870400521FFF708BA70BD00006B
:10577000F7B5114D0C46286920B11146FCF78CFE97
:10578000002806D0A869006920B1826821460098E7
:105790009047FEBD094E0BE06846FCF721FF074627
:1057A000A869016838468847316809B13846884792
:1057B000641EF1D5FEBD000034DD00205000002045
:1057C0002DE9FF5F9846894610AC98F800503A4A98
:1057D0008346DDE90E1749CC555DC1F10804CD4083
:1057E0003649097B11F003011FD001294AD0022953
:1057F00060D1B0F802A0BC4200D93C463F1BBBF1CF
:10580000000F2BD035B3E80708D0DBF80800494675
:10581000029A036858469847A6F800A0B61C09F1FA
:105820000109641E26D06D08ECE72349BC4200D96B
:105830003C463F1B05F001026D0830F8122026F8A7
:10584000022B641EF6D1002F34D018F8012F082443
:105850008D5CEBE706EB4406A1440BE045B1E8079D
:1058600001D0A6F800A0B61C641E03D06D08F5E7B1
:1058700006EB4406002F1DD018F8011F0E4808241F
:10588000455CB8E7586A80470B4980B2BC4200D9F2
:105890003C463F1BEA0702D0328842403280B61CA9
:1058A0006D08641EF6D1002F04D018F8012F0824CB
:1058B0008D5CEBE7BDE8FF9F9074000834DD0020AD
:1058C0002DE9FF5F89460EA98246B1E84108C0F183
:1058D0000401CCB21978400081402F48119F9846AE
:1058E000007BCDB210F0030004D001283AD002288A
:1058F0004FD114E0B44200DDF4B2361BA9093BF8E5
:10590000110027F8020BA806050E641E14F0FF0410
:10591000F4D1002E3DD0042418F8015FEAE7B44228
:1059200000DDF4B2361BA8090DD0A909BAF1000FA9
:105930003BF81100388006D0DAF808004946029A90
:10594000036850469847A806BF1C050E641E09F15F
:10595000010914F0FF04E6D1002E1AD0042418F82F
:10596000015FDCE7B44200DDF4B2361BA80903D0C6
:10597000388880F0FF003880A806BF1C050E641E22
:1059800014F0FF04F2D1002E03D0042418F8015FB4
:10599000E8E7BDE8FF9F000034DD00202DE9F05F5F
:1059A00080460AA88A46B0E8420293461F461A7803
:1059B0008B009A40D5B24E4AC1F102000D9C127B79
:1059C000C0B212F003021AD0012A79D0022A38D1CB
:1059D00000295FD028090DD02909B8F1000F39F846
:1059E0001100208006D0D8F808005A4651460368B6
:1059F00040469847A41C0AF1010A761E48E039B1D6
:105A00002909761E39F8110024F8020B17F8015FF6
:105A1000022E10DB701006F001062A0939F8121068
:105A200005F00F02218039F812106180241D17F84B
:105A3000015F401EF1D1002E03D0290939F8110071
:105A40002080BDE8F09F28090DD02909B8F1000F8A
:105A500039F81100208006D0D8F808005A4651467F
:105A600003684046984715F00F000DD039F8100034
:105A70006080B8F1000F07D0D8F808005A460AF144
:105A80000101036840469847241D0AF1020AB61E28
:105A900017F8015F022ED6DA002ED2D02809D0D016
:105AA00039F810002080B8F1000FCAD0D8F80800EB
:105AB0005A46514603684046BDE8F05F1847FFE785
:105AC000B04200DDF0B2361AA90903D0218881F076
:105AD000FF0121802907A41C0D0E401E10F0FF00BD
