:020000040800F2
:10000000C0260020C9010008CD010008CF0100086A
:10001000D1010008D3010008D5010008000000004C
:10002000000000000000000000000000D7010008F0
:10003000D901000800000000DB010008F100010800
:100040003906010879FE0008F1010108C90001081C
:1000500069E100086100010855DF00088DDF000834
:1000600093DF000895DF0008A9E00008DF01000821
:10007000DF010008DF010008DF010008DF010008E0
:10008000DF010008DF010008DF010008DF010008D0
:10009000DF010008DF010008DF010008ABE0000815
:1000A000F3010108F9010108F7010108F501010850
:1000B000490201086D0201086F02010809E6000803
:1000C00007E600080DE600080BE60008CB00010873
:1000D000CD000108E1030108E3030108E50301087D
:1000E00059DF0008C1000108E703010800F002F829
:1000F00000F05AF80AA090E8000C82448344AAF168
:100100000107DA4501D100F04FF8AFF2090EBAE865
:100110000F0013F0010F18BFFB1A43F0010318473B
:10012000D43B0600F43B06000A444FF0000C10F8E4
:10013000013B13F0070408BF10F8014B1D1108BF65
:1001400010F8015B641E05D010F8016B641E01F805
:10015000016BF9D113F0080F1EBF10F8014BAD1C55
:100160000C1B09D16D1E58BF01F801CBFAD505E073
:1001700014F8016B01F8016B6D1EF9D59142D6D3CD
:10018000704700000023002400250026103A28BFF5
:1001900078C1FBD8520728BF30C148BF0B607047F9
:1001A0001FB51FBD10B510BD0DF0D9FC1146FFF7EE
:1001B000F7FF11F02BFC0DF0F7FC03B4FFF7F2FF93
:1001C00003BC0DF0FDFC000008480047FEE7FEE719
:1001D000FEE7FEE7FEE7FEE7FEE7FEE7FEE7FEE7F7
:1001E00003480449024A044B70470000ED00000830
:1001F000C01E0020C0260020C01E002010B5002216
:10020000C0F30B00B0F5006F02DDA0F50060012225
:10021000B0F5806F01DDC0F500608311FC4C00F08B
:100220003F00C0F1400134F813004843402906D094
:1002300004EB4303C1F140015B8803FB0100203064
:100240008009002A00D0404210BD00F58060D5E74B
:10025000F04B1A7D012A05D0521E02EBD2725210C9
:1002600001F084B89A6C526810472DE9F84F0546A2
:100270008846541BA3EB08079B4691464FF0000AA3
:1002800054EA07002CD0204600F0F3F90646384621
:1002900000F0EFF986420ADA20463C460746284637
:1002A000454680464846D94683464FF0010A2046D7
:1002B00000F0DFF9A04203D064427F424D46D846A9
:1002C00004EBD4704FEA6009002F01DAC9F100098C
:1002D000DFF840B34FF000069BF8160098B132E00B
:1002E0002846BDE8F84FB3E707FB069090FBF4F112
:1002F00001EB0800BAF1000F09D0DBF84820A9197A
:1003000052689047761CA642EEDDBDE8F88FDBF818
:100310004810AB194A6801461846F2E707FB0690F9
:1003200090FBF4F101EB08000090304600F0E7F993
:1003300040B9BAF1000F09D0DBF84800A9194268AA
:1003400000989047761CA642E8DDDEE7DBF848100F
:10035000A8194A680099F4E72DE9FF470746AD4818
:1003600015461C46027D0E46012A1CD0781B311B07
:1003700050EA010371D0A2F1010800F07EF900F506
:1003800080608146FFF761FF00FB08FC4846FFF7ED
:1003900035FF00FB08F0BCF1000F0ADACCF5007164
:1003A0008912494209E004B02A463846BDE8F047C0
:1003B0005BE70CF5007C4FEAAC21002804DAC0F5BD
:1003C00000708012404202E000F5007080120029A7
:1003D00004DD4A1C02EBD272521003E001EBD17231
:1003E0005210491E01EBD1714910002804DD431C55
:1003F00003EBD3735B1003E000EBD0735B10401E84
:1004000007EB020CADF800C006EB030CADF802C020
:10041000A7EB010C00EBD0704010ADF804C0A6EBC8
:10042000000C691AADF80810201AADF80A00A818D7
:10043000ADF80C00E018ADF80E000023ADF806C0D2
:100440001A46042168460AF01EF83146384600F084
:100450008FF92146284600F08BF9BDE8FF872DE98A
:10046000F0416C4D2C6C2718686CA5184618C41800
:10047000002008F0C1FF07E023462A4631463846EF
:10048000FFF76AFF08F091FF0028F5D1BDE8F08181
:1004900070B5604C0D460646B4F92810B4F9260034
:1004A0002B463246FFF758FFE684258570BD594A32
:1004B000D084118570472DE9F04105460446B0F916
:1004C00002001E4688468119B4F9000017463844D8
:1004D000FFF7EDFF08E0241DB4F902008119B4F91B
:1004E00000003844FFF7D4FFA8F10108B8F1000F6D
:1004F000F1DCB4F90010B5F90000814205D1B4F97E
:100500000210B5F902209142C0D0B5F9021038446A
:100510003144BDE8F041BBE7B8E72DE9F0410746BB
:100520003C480E46016C406C8D18C418002008F041
:1005300063FF07E023462A4631463846FFF7BBFFF4
:1005400008F033FF0028F5D1A0E7324AD38C1844D5
:10055000D084108D08441085704770B505460C4650
:10056000002008F049FF60B12A4EB6F92810B6F90C
:1005700026000B194219FFF7EFFE08F016FF0028BE
:10058000F3D121462846BDE87040DEE770B5214D25
:100590002A6C1618686C4418002008F02DFF09E03A
:1005A00032462346B5F92810B5F92600FFF7D4FEE8
:1005B00008F0FBFE0028F3D121463046BDE870402C
:1005C00075E7144A136C526C184411446FE72DE917
:1005D000FC41104C256C94F814C02F18606CAE18B8
:1005E000ACF1010C4418C518A7EB0C00ADF80000E5
:1005F00006EB0C00ADF80400A4EB0C00ADF8020013
:1006000005EB0C00ADF80600684608F0F5FE19E0B1
:10061000ECE00508A41B00203246214638460AF0CB
:1006200021FC3246294638460AF01CFC6A1E611C31
:1006300038460AF083FD6A1E611C30460AF07EFDD2
:1006400008F0B3FE0028E7D1BDE8FC8170B54B4A45
:10065000136C1D18506C4418002008F0CDFE05E006
:1006600021462846FFF7F4FD08F09FFE0028F7D149
:1006700070BD002800DC4042704710B50022002801
:1006800001DA01224042002902DA42F00202494224
:10069000814204DD0B460146184642F004028902FD
:1006A00000EBD07301EB630191FBF0F080100311BC
:1006B000334C00F00F00C0F1100134F9130048432F
:1006C000102907D004EB4303C1F11001B3F9023044
:1006D00003FB010000F108004FEAE07100EB11702C
:1006E0004FEA2010510701D5C0F58060D10701D035
:1006F000C0F50060910701D5C0F5805010BD1F49BD
:10070000897D012906D002290ED0032918D0042999
:1007100014D11EE0801DC11700EB117121F00F01F3
:10072000401A0C2808DB09E0C11700EB917121F099
:100730000301401A022801DA0120704700207047A7
:10074000142190FBF1F201FB12000C28F4DB1038AD
:100750000BE0182190FBF1F201FB12000C28EBDBFF
:10076000A0F110010229E7D314380228E6D2E3E70A
:10077000024A527D002A00D16AE57047A41B00207E
:100780000EE105087CB5204C0546608CB4F840109D
:1007900008446084A08CB4F844100844A08428461F
:1007A00000F043FD0146608CADF800000844401E97
:1007B000ADF8040009F078FF0146A08CADF8020006
:1007C0000844401EADF80600684608F015FE04E037
:1007D000284600F0FFFC08F0E8FD0028F8D10A2DBB
:1007E00003D0BDF80400401C608434F8220FE18B74
:1007F000401A20806088618C401A60807CBDC1E70F
:10080000014B59849A84BDE7A41B0020024B5984F4
:100810009A8409F0F5BC0000A41B00202DE9F041EA
:1008200006460A4814460D46B0F92C0040F0020076
:100830000AF056F80746224629463046FFF7E6FFFB
:100840003846BDE8F0410AF04BB80000A41B002078
:100850002DE9FF4F85B000249A4691460E46254665
:10086000DDF814B009F020FF804626B13068009012
:100870007068019002E0684609F002FF19F00C0F61
:1008800002D05646012713E0BDF902402DE0314663
:1008900005980AF0D2F80146761A05980AF071F820
:1008A00005990844059005A809F0FAFA10B97F1CCB
:1008B000002EECD109F00C00042804D0082802D046
:1008C0000C2812D105E0BDF9061007FB1814641CB2
:1008D0000BE0BDF90600BDF90210421A07FB182013
:1008E000401C00EBD07001EB60045646CDF814B00C
:1008F00046E0314605980AF0A0F807460146F61B87
:1009000005980AF0B2F819F003010ED001290FD0B2
:10091000022911D1BDF90420BDF90010521A121A92
:1009200002EBD27201EB620506E0BDF9005003E074
:10093000BDF904100D1A6D1C2649401E28444D8433
:10094000ADF80C00ADF808508C8404EB0800401E94
:10095000ADF80E00ADF80A4002AA394605980AF033
:100960009BF8394605980AF00CF80599084405905B
:1009700000F022FC044405A809F092FA002801D1F5
:10098000002EB6D109B0BDE8F08F2DE9FC411F461D
:10099000904606000D4617D0002465B108460CF0BD
:1009A000E1F8040007D002462946684609F0A1FA9A
:1009B00068460CF0D7F83B46424629463046FFF7DA
:1009C00047FF20460CF0CEF8BDE8FC8147F6FF73E8
:1009D000DBE70000A41B00202DE9FF471F460C9E0B
:1009E00090460D46814666B30024009401949DB163
:1009F000286800901C4A696801911060516028467F
:100A00000CF0B0F8040007D00246294602A809F00D
:100A100070FA02A80CF0A6F8304600F017F8054668
:100A20007168684688473B46424669464846FFF734
:100A30000FFF20460CF096F8284600F007F8BDE8B6
:100A4000FF8704B0BDE8F047FFF79FBF074B10B525
:100A5000074A196808B1002401E0054C241D1461FF
:100A60001860084610BD0000EC0000206001002066
:100A7000A41B00202DE9FC410F4F0346386C45189C
:100A8000796C8418CE18ADF80050ADF80440ADF87C
:100A90000260ADF80660684608F0AEFC07E0B86C8E
:100AA0002246314603682846984708F07EFC002815
:100AB000F5D1BDE8FC810000A41B00207CB50E4BE5
:100AC0001C6C0444586CADF8004046188518ADF80D
:100AD0000440ADF80260ADF80650684608F08CFCA2
:100AE00006E02A46314620460AF028FB08F05DFC65
:100AF0000028F6D17CBD0000A41B00200B4810B5D7
:100B00000068002410B1804700B1012408F0BDFD49
:100B100000B10124204610BD10B5002400E00124DE
:100B2000FFF7ECFF0028FAD1204610BD5401002049
:100B30002DE9FC410F4D2C6C2718686CA518461840
:100B4000C418ADF80070ADF80450ADF80260ADF80F
:100B50000640684608F050FC07E023462A46314626
:100B600038460AF09AF908F020FC0028F5D1BDE8D3
:100B7000FC810000A41B0020B0F90630B0F904206D
:100B8000B0F90210B0F90000FFF7D2BF0348B0F986
:100B9000220070470148B0F924007047A41B0020D0
:100BA00000F00CB800F00EB870B50D4600F00AF871
:100BB0000446284600F002F8204370BD03498884AB
:100BC000002070470149488400207047A41B002082
:100BD000FEB52E4D681E2A78014602F0030404700B
:100BE0006B784968D60605D5C3F10003DBB2A1EBEB
:100BF000030100E019449306244A4160A2F1010276
:100C0000A978926803D54942C9B2114400E0511A4B
:100C1000816041680022002901DA426005E0B1F5F7
:100C2000487F02DB40F21F3141608168002901DA10
:100C3000826005E0B1F5F07F02DB40F2DF118160F8
:100C400041680091806801908DF80840684609F07D
:100C5000DBFDFEBD10B50D4C641E621CE16849B1A0
:100C60005054491CE160032903DBFFF7B1FF00206A
:100C7000E06010BDC0F381010229FAD1107001209B
:100C8000F6E702490020491EC8607047F5000020C1
:100C90001E49002248684A6070471C494A68002A79
:100CA00000D14860704700B5FFF7F2FF0028FBD184
:100CB00000BD164A0832C2E900011449012008604B
:100CC000704770B5114A0020116800290FD0491EE5
:100CD00002F108041160D4E9005128460BF002FE2D
:100CE0006068012802D12846FFF7D7FF012070BDB8
:100CF00070B50C4605460BF0F5FD002804D12146E1
:100D00002846BDE87040D4E770BD00000401002013
:100D10000748007D70470648407D7047044A0146F9
:100D2000107D11757047024A0146507D517570471C
:100D3000A41B00200AF0E0B90AF0EAB9024A91695E
:100D400000B1906108467047A41B002030B40346F0
:100D5000604C0A46401C07D0501C05D06068411CFE
:100D600002D0A1684D1C02D14FF0FF300146C4E90A
:100D7000013230BC09F0C4BD5648C06870475548C0
:100D8000006970475348B4212430016040F628714F
:100D90004160C821816040F6D861C16070472DE98B
:100DA000F84F1F460A9D9046894604004FF0000CFC
:100DB0000FD040F2DF16781B00D54042142805DB27
:100DC000B9EB080000D54042142805DA0120BDE83F
:100DD000F88F40F21F36EEE74246494660460095DE
:100DE00000F06DF8DFF8ECA03B460AF1240A424619
:100DF0004AF8340049463046009500F060F80AEBA6
:100E0000C40148600020E2E7324B10B5243353F8A8
:100E1000304003EBC0000C604068106010BD70B53E
:100E20002C4D2C4C2435D5E90010814202DAC4E95E
:100E3000051001E0C4E90501D5E90210814202DA9A
:100E4000C4E9071001E0C4E907012078B0B10DF052
:100E500087FAE0600DF082FA04F10C0007C89042B6
:100E600008DBA269904205DCE269914202DB226A5A
:100E700091420BDD4FF0FF3001461BE00DF004FB0B
:100E800020610DF06CFA2078401C16E02A6840F2D0
:100E90001F33801A58436B689A1A90FBF2F3AA68C2
:100EA000881A00EB4011C1EB4020E968891A90FBD9
:100EB000F1F11846FFF74AFF0020207070BD10B511
:100EC000401A029CE41A4443501A94FBF0F0184470
:100ED00010BD0000140100202DE9F04781464FF0BD
:100EE000FF380020B04F1BE037F81100518806EBA7
:100EF0004605014437F91500411A0CB24C450EDA8B
:100F00006CB1AA49014407EB4500B0F90220081B67
:100F10000CF04AFD37F81500001B27F81500304685
:100F200000EB400107EB41021679002EDCD100EB0B
:100F3000400207EB410137F91220B1F902101144C8
:100F4000C1F5A0524A4500DB80460FFA88F0BDE8A3
:100F5000F0879748A1210422416081604FF4A0519D
:100F6000C18101820021016081818F48428001801E
:100F7000017190490120087070472DE9F041044645
:100F800000F00CF9E41CDFF8288224F0030004B21E
:100F9000B8F90E00A04254DB834E012000EB400163
:100FA00006EB4101498851B1401CA228F6DB00251F
:100FB000EDB3204600F0C8F8411C02D006E005B2AF
:100FC000F6E72046FFF788FF411C3AD000EB4001CE
:100FD00006EB410336F81120598805EB450C5718EC
:100FE00006EB4C021979548026F81C70117121B15E
:100FF00001EB410106EB41014D7150711D71D8F8B3
:1010000000004146401CC8F80000D8F80400401E0B
:10101000C8F80400D8F80820824200DD886088897A
:1010200020448881C889001B00B2C88100E008E024
:10103000B1F91020824201DDA8F810002846BDE871
:10104000F0810020FBE7002800D096E770470028D9
:1010500006D0554900EB400031F9100053490844CF
:10106000704710B500F09AF85148B0F90E0010BD65
:1010700070B5002400F092F800204B4D0DE035F8DB
:1010800012005A88104401EB410235F81220101A60
:1010900000B2A04200DD0446084600EB400205EB2A
:1010A000420319790029EAD100EB400005EB420127
:1010B00035F91000B1F902100844C0F5A05000B293
:1010C000A04200DD0446204670BD002806D0364907
:1010D00000EB400001EB4000B0F90200704700282F
:1010E00001D000F00AB8704710B50446B0F900000E
:1010F000FFF7F5FF0020208010BD2B4B00EB4000D8
:1011000010B503EB4001B1F9020000281BD0284ABA
:10111000D4890444D4819489201A90810020488085
:101120000879497901EB410403EB4404207120B1B3
:1011300000EB400003EB400041715068401C5060E0
:101140001068401E106010BD30B50021164D0CE037
:1011500035F91330B4F90240234402EB420435F967
:101160001440E31A834214DA114601EB410305EB04
:1011700043042279002AEBD101EB410205EB430342
:1011800035F91220B3F902301A44C2F5A052824256
:1011900001DB08B230BD4FF0FF3030BD05480078AC
:1011A000002800D1D5E67047C4170020C4030020F2
:1011B000901B0020480100201E488069407D704738
:1011C00000B5FFF7F9FF1B498A8C10448884088C0E
:1011D000488400BD10B504460A280ED00D2C0FD04F
:1011E000144880690168204688471348016800292F
:1011F00006D02046BDE810400847BDE81040DFE7B4
:1012000010BD0C49002091F82C1001F00C02094986
:10121000042A896906D0082A01D00C2A01D1087D48
:1012200040087047087D401E704702498969496837
:1012300008470000A41B00205C0100202DE9FC5F92
:1012400015460746DFF8A08328440190D8F84820C7
:101250001C460E462144526889469047781B0090F0
:10126000D8F84820494652689047D8F84820711964
:10127000381952688A4681469047D8F84820711B31
:101280008B46526848469047002C1AD0D8F8482020
:10129000311B0E465268454601989047AA6C31466C
:1012A000009852689047AA6C381B51465268044611
:1012B0009047AA6C59462046526802B0BDE8F05FDC
:1012C0001047BDE8FC9F2DE9F0478146884640F273
:1012D000C32050434FF47A7190FBF1F602FB02F009
:1012E00002EBD27100EB6107761C144600234146E5
:1012F0004846FFF7A3FF012513E005FB05F004FBBB
:101300000400B84206DD23462A4641464846FFF718
:1013100095FF641E23462A4641464846FFF78EFF46
:101320006D1CB542E9DDBDE8F0877CB51446AE4AD8
:10133000136C1E18506C4518301BADF800003019A6
:10134000ADF80400281BADF802002819ADF806001E
:10135000684608F051F806E0224629463046FFF775
:10136000B2FF08F022F80028F6D17CBD2DE9F84F35
:1013700006460F4640F2C32050434FF47A7190FB6B
:10138000F1F000F1010802FB02F002EBD271DFF88C
:1013900058B200EB61000090DBF84810144632446C
:1013A0000B68301B39469847012530E005FB05F0F6
:1013B00004FB04010098814218DD444515DDDBF88B
:1013C000483006EB0509A6EB050A1B68A9F10102E6
:1013D00039190AF101009847DBF84830A9F10102F8
:1013E000391B1B680AF101009847641EDBF848307E
:1013F00032197919301B1B68924681469847DBF8F1
:1014000048305246791B1B68484698476D1C454535
:10141000CCDDBDE8F88F70B5734B15461A6C141807
:10142000586C4618002007F0E7FF06E02A463146D0
:101430002046FFF79BFF07F0B8FF0028F6D170BDEC
:101440002DE9F84F824602FB02F01E4600907043E1
:10145000894600FB06F101EB500B1446002525E000
:10146000009A05FB05F0424306FB06F100E0641E0E
:1014700004FB04F001FB0020002C01DD5845F6DCE4
:10148000594B0AEB0402AAEB04009B6C904609EB53
:1014900005011B68074698473DB1534B4246A9EBEF
:1014A00005019B6C38461B6898476D1CB542D7DD1B
:1014B000AFE72DE9FC4117464B4A1E46136C1D1839
:1014C000506C4418E81BADF80000E819ADF80400B2
:1014D000A01BADF80200A019ADF80600684607F0A1
:1014E0008BFF07E033463A4621462846FFF7A8FF20
:1014F00007F05BFF0028F5D1BDE8FC812DE9FF4F27
:10150000144683B002FB04F1019159439A46804688
:1015100001FB0AF000EB5100A146002502903AE0E1
:1015200001D1002410E0019A05FB05F042430AFBBB
:101530000AF100E0641E04FB04F001FB0020002C13
:1015400002DD029B9842F5DC1DB30498A8EB04026F
:10155000471BA8EB0900791C83463B460092FEF727
:1015600084FE0498009A4619711E58463346FEF7C9
:101570007CFE3B46791C08EB040208EB0907934606
:101580003846FEF772FE33465A46711E3846FEF75D
:101590006CFEA1466D1C5545C2DD07B0BDE8F08F5D
:1015A0002DE9FC411746104A1E46136C1D18506C5D
:1015B0004418E81BADF80000E819ADF80400A01BC2
:1015C000ADF80200A019ADF80600684607F014FF58
:1015D00007E033463A4621462846FFF78FFF07F0DB
:1015E000E4FE0028F5D187E7A41B00202DE9FC418B
:1015F00007461C4615460E46042009F00BFC8046A3
:101600003548016C406C0F4406440D440444ADF869
:101610000070ADF80450ADF80260ADF806406846C1
:1016200007F0EAFE07E023462A463146384609F02D
:1016300034FC07F0BAFE0028F5D1404609F0EAFB79
:10164000BDE8FC8110B500210846FFF7ADFA40F671
:10165000FF725042BDE8104013460146C6E770B520
:101660001E4D2E2028700CF0CDFF1B4C261D201D7A
:10167000266109F087FD1A48A0641A482661A06116
:101680000120207508F050F9A087032084F84C0051
:101690006FF0704020636063002009F02DFD6FF053
:1016A0007F4009F035FD1048E06109F008FD04466F
:1016B00008F04CF80AE00A48083008F0A1FD0021C3
:1016C0000846FFF771FA6968491C696068680A286A
:1016D000F1DB204670BD0000A41B00204C0100205F
:1016E00030E10508A8ED0508BC2306080CF084BF0E
:1016F00070B504460CF080FF051907E0FFF70CFAFF
:10170000052C00DD052420460CF052FF0CF074FF80
:101710002C1A002CF2DC70BD1FB503ABCDF80CD039
:1017200008F0F8FC684608F06BFD1FBD7FB50C465D
:101730001546CDF80CD003A908F0DDFC641EE1B21B
:1017400003AB2A4608F0E6FC684608F059FD7FBD69
:101750001FB503A9CDF80CD008F0AAFC684608F024
:101760004FFD1FBD7FB5051E01A80C46009006DA8F
:101770006946284608F0BFFC641E0546E4B22846C8
:1017800008F0A4FCC2B2202003E0009B03F8010B88
:1017900000931146521CD2B2A142F6D369462846A4
:1017A00008F086FC01A808F02BFD7FBD0022BDE7F4
:1017B0000022B1E77FB51E4614460D46CDF80CD089
:1017C00003AB0022314608F0A5FC224629466846B4
:1017D000FFF71CF87FBD000010B5C488428801885F
:1017E000A41A83880C44591A84801144C18010BD06
:1017F0007CB505460020009001900C46684608F034
:101800000DF909F0D7FC461E09F0D7FCBDF904100C
:10181000401EB14201DDADF80460BDF90610814201
:1018200001DDADF80600BDF9002020682968101A16
:101830002860BDF9020008442060A0482968B0F97A
:1018400004201144B0F9022011442960B0F90220AB
:101850002168B0F900001144081A20607CBD2DE910
:10186000FF4F89B09B460A99924601EB0B00401E40
:101870000999039001EB0A00401E029000251A9E70
:101880000AA909A8FFF7B4FF03A902A8FFF7B0FF50
:101890001698012802D11798012808D01898C0F18D
:1018A000080007900998009000200190A4E0844B64
:1018B00003990020B3F90A208A4202DA891AAAEBB6
:1018C000010AB3F906400A998C420DDD501A189AA4
:1018D000AAEB000A012A07D120F0070206EBE00676
:1018E000891A00F007000A91BBF1000F32DDB3F94D
:1018F0000810099A914207DA511A521A0992199A54
:10190000ABEB010B01FB0266B3F9042002998A429A
:1019100004DD521A1144ABEB020B0291BAF1000F35
:1019200018DDDDE909910591DDE9188504900024B1
:101930001B9F0DE0B8F1010F08D1CDE900A7DDE94B
:101940000431A9EB0400324600F059F82E44641C1F
:101950005C45EFDB0DB0BDE8F08F17990098401A99
:1019600006905749401C0490B1F9042082423BDCA8
:101970000846B0F908100098814235DB002437464C
:10198000A146DDF828802DE014B917F8015B082482
:10199000079935FA01F0189905FA01F5EDB2A4EBB3
:1019A000010403D14649097B890717D44449498872
:1019B00005911B9921B131F810104148418001E097
:1019C0003F4948801699009A08EB01035B1E414687
:1019D000049809F062FA3A4905984880169909F185
:1019E00001098844D145CFDB0198401C019006983D
:1019F00000901998064401985845AEDBAAE72DE9F6
:101A0000F05F8346DDE90A701C46B0F80090B0F83C
:101A100002802B480E1B1546007B4FF0800110F012
:101A2000030013D001282DD0022824D1894629781B
:101A300029FA04F0014204D04246314658460DF0DE
:101A40000DFA761C641C082C17D018E08A462978F9
:101A50002AFA04F0014201D0424600E04A463146EB
:101A600058460DF0FBF9761C641C082C01D10024AB
:101A70006D1C7F1EEBD1BDE8F09F00246D1C7F1E06
:101A8000D5D1F8E788464FF6FF79297828FA04F08F
:101A9000014209D0314658460DF0A6F9A9EB0002E3
:101AA000314658460DF0DAF9761C641C082C01D139
:101AB00000246D1C7F1EE8D1DDE70000EC00002053
:101AC000A41B00202DE9F043C78C044687B04FF0DB
:101AD0000009C7F3002508460AF0F4FC08B12E46B9
:101AE00000E00226206CFFF729F9B4F9480010B194
:101AF000FFF7ADFA8146684608F0C2FDDDE9000156
:101B0000CDE9020145B3002009F002FBBDF9063022
:101B1000BDF90420BDF90010BDF90200FEF757FD24
:101B2000012202A9084608F00DFA04EB8608D8F84D
:101B3000280009F0E1FAD8F8340009F0E9FA02A81F
:101B40000BF010F8FFF77EFD022E0DDAB4F84C0012
:101B500040B13DB101200BE0206A00688047206A57
:101B60004269DEE7002003E0B4F84E0000B1022035
:101B700004EB40000022B0F94A00114609F0A5FE2E
:101B8000DDE90201CDE9040125B10122114604A8D5
:101B900008F04EFE022008F0ABFEB4F9442004A980
:101BA0004846FEF713FFF80706D0002009F0B0FA08
:101BB0000221684608F004FC00200AF0D3FF07B0B9
:101BC000BDE8F08370B5B0F9046005463046FFF714
:101BD0003EFA04462946304606F036FD002840D03D
:101BE00028680B282CD00C2802D00F2834D122E0F2
:101BF000A9683046C9B1097A0029E18C4FEAC15180
:101C00000FD000292DDB35464FF4807106F0F2FC31
:101C1000217F880725D52846BDE8704001210AF0BC
:101C200058BE00291DDA022200E003222146BDE849
:101C3000704000F092B831462046BDE8704041E760
:101C400004F14800FFF750FA04F14A00FFF74CFA9C
:101C500004F14C00FFF748FA2846BDE8704007F051
:101C60001EBD70BD2DE9FF410C46DDE90AC13026DD
:101C7000AFF2AF070D9D89B2CDF800C00396CDE954
:101C80000117214607F055FA04000CD0FFF7DFF9E1
:101C900006461022294606F0D1FC20223B4906F1D7
:101CA00028000BF0C3FE04B02046BDE8F08170B5FB
:101CB0000D4604000CD0FFF7CAF92946483008F059
:101CC0004EF9002804D02046BDE8704007F02FBA36
:101CD00070BD70B50D46040007D0FFF7B8F9056474
:101CE0002046BDE8704007F022BA70BD70B51646B8
:101CF0000C4605000BD0022C09D8FFF7A8F900EB21
:101D0000840086622846BDE8704007F010BA70BDB6
:101D100070B516460C4605000BD0022C09D8FFF70B
:101D200096F900EB840046632846BDE8704007F052
:101D3000FEB970BD06F045BC4FF480720029114613
:101D400001D006F057BC06F067BC00294FF0100127
:101D500001D006F04FBC06F05FBC70B50C461546CE
:101D600006464FF4807106F057FC207F800703D5AC
:101D7000294630460AF0ADFD022D05D1B4F9240004
:101D8000BDE87040FEF789BF70BD000074010020FF
:101D900070B516460C46054619463046049A09F0B9
:101DA000C8FD024621462846BDE8704009F01ABA2F
:101DB00008B500230093FFF7EBFF08BD7FB516467B
:101DC0000446B0F90820408A1D460023CDE90013DF
:101DD000CDE90202B4F90C00B4F910304119B4F99C
:101DE0000A00B4F90E203044FFF73CFF0546616855
:101DF000FFF75DFF04B0284670BD10B50C4601002A
:101E00004FF0000007D0022C05D20846FFF71FF95B
:101E100000EB8400806A10BD10B501004FF0000097
:101E200003D00846FFF713F9006C10BD2DE9F0410F
:101E300015460E46002815D0FFF709F9B0F94800FD
:101E4000002788B1FFF703F980460BF03DFD0446FB
:101E5000681E844200DD04462246414630460BF0AF
:101E60005EFD3755BDE8F0813770FBE710B50C46D5
:101E700001004FF0000007D0022C05D20846FFF702
:101E8000E6F800EB8400406B10BD10B501004FF088
:101E9000000005D00846FFF7DAF8C08CC0F3002038
:101EA00010BD7FB51C461546B0F90820438A0026B0
:101EB000CDE90232CDE90016B0F90C10B0F91030BE
:101EC000B0F90E20B0F90A002144284409F0D0FAF4
:101ED00004B070BD10B509F015FB012800D000203A
:101EE00010BD70B50C4605000CD0FFF7B0F890F8A7
:101EF0005010A14206D380F851402846BDE87040FA
:101F000007F015B970BD00003D48006870473C4AB5
:101F100001461068116070470EB5002201922A2216
:101F200002910092694606F07CFF0EBD0EB50021BD
:101F3000019102912A210091694606F072FF0298F0
:101F40000EBD2DE9F8431F460446DDE90803009263
:101F50000D460246266839462046B047074607F038
:101F6000D7FC8046618A384606F044FB38460AF0C2
:101F700019FE40460AF016FE002609E0009654F8C5
:101F800018CF00231A4641462046E0470AF00AFED1
:101F90006D1E002DF2DC38460AF086FD1E214046FB
:101FA0000AF006FD3846BDE8F88370B50C460546D4
:101FB000FFF7BCFF10B10121C0E900142846BDE8BD
:101FC000704006F057BF1CB5002100910191694691
:101FD000FFF7A2FF04E0FEF79FFD08B90CF0FAFA44
:101FE00000980028F7D001981CBD7CB5DDE90645B6
:101FF000CDE90045FFF7A5FFBDE87C40E3E7000021
:102000009401002070B50C46050015D0FFF71FF8AD
:10201000C18D01B1491E8C4200DD0C46B0F928107B
:10202000A14209D00485284607F081F82846BDE87A
:10203000704004210AF04DBC70BD2DE9FC47FFF74C
:1020400006F80546006AB5F95C70D0F81490286C63
:10205000FEF774FE95F82600C00701D0022600E0C6
:102060000126B5F92810284600F0C5FA80466846D2
:1020700007F040FC69464A46084607F063FFBDF892
:102080000600BDF80210441A641C284606F0B9FB8D
:10209000BDF8040005EB8606001BADF80400706C6B
:1020A00009F036F8706C09F027F86846FEF764FD11
:1020B000BDF800003844ADF80000BDF80400C01BB6
:1020C000ADF80400306D09F023F8B5F95E206946DB
:1020D0004046FEF77BFC684607F00CFC69464A4622
:1020E000084607F02FFFBDF80400001B401CADF8A8
:1020F0000000F94809F00CF86846FEF73DFD0020A5
:1021000009F006F8BDF90400BDF90010084400EB21
:10211000D0704710BDF90200BDF90610461D081A1F
:10212000083800EBD070441006E03A19391B3046ED
:10213000FEF7A0FC641E761C002CF6DA69462846E1
:1021400006F061FBBDE8FC8770B50546B1F92C00CF
:102150000C4610B9206C08F0EFFA216AB4F95C2043
:10216000496900EB42000E18204607F07BFC01464F
:1021700032462846BDE870400AF0D8BC10B50100D0
:102180004FF0000004D00846FEF761FFB0F92800C8
:1021900010BD10B50446FFF7F1FF010000D0411E4D
:1021A0002046BDE810402DE710B50446FFF7E6FFD6
:1021B000411C2046BDE8104024E72DE9F0410028ED
:1021C00027D011290FD013290AD007460C46FEF755
:1021D0003EFF0646204600F019FA0546002415E0A9
:1021E000BDE8F041E0E7BDE8F041D2E721463046E6
:1021F00000F001FA007800F009FAC0B2A84204D158
:1022000021463846BDE8F041FCE6641CF08DA04252
:10221000ECDCBDE8F0812DE9F04385B05FEA000811
:102220007DD0FEF714FF0446B0F86000002876D198
:10223000404607F0DDFBFEF70AFF0646204607F0A2
:1022400011FC8146B4F92A50E78DD4E90001CDE9AB
:102250000301B6F902004242B6F90000414203A868
:1022600008F0E6FA94F86200800703D5BDF80E0086
:10227000401B01E0BDF81200ADF80E00404607F02B
:10228000B7FB0222CDF80090CDE901520146BDF91D
:102290000E30BDF90C20002009F0EAFE064694F845
:1022A0006200C00708D094F86610304609F046FF77
:1022B0000121304602F0A4F9002508E02946204615
:1022C00000F099F90146304602F091F86D1CBD42CC
:1022D000F4DB002504EB85002946426C304609F00A
:1022E0000DFF6D1C032DF5D3002504EB8500294659
:1022F000026D304609F038FF6D1C032DF5D32834EC
:102300003046A18F09F0DFFE3046A16909F0C2FE18
:10231000304607F08DFC26874146304600E00AE053
:1023200009F0FEFEB4F90010304601F0E9FD01218C
:1023300040460AF0CEFA05B0BDE8F08310B500289B
:102340000BD0FEF784FE0446B0F96000002804D0EC
:1023500006F090FD0020A4F8600010BD2DE9F041CA
:10236000B0F9046004463046FEF771FE0546B0F849
:10237000600008B1012700E000272146304606F042
:1023800063F900285ED020680F283ED006DC0B28B9
:102390003FD00C282BD00E284FD143E011281ED05F
:1023A00026284AD1A068012809D00A2802D00B2883
:1023B00043D110E00A2130460AF08BFA3DE0B5F92E
:1023C000600001F074FE01463046FFF71BFE304608
:1023D00007F02EFC31E03046FFF7B0FF2DE007BBE1
:1023E000A068007AE8B13046FFF715FF25E0A16844
:1023F000304629B1097A09B1012102E0022100E049
:102400000321BDE8F0410AF064BA3046FFF715FE3B
:1024100013E005F12E0009F09AF9B5F9600006F015
:1024200029FD0AE0A0684168002906DD0168092944
:1024300003D03046BDE8F041BFE62046BDE8F0419C
:1024400007F02DB9E5E62DE9FF410BAC1E46B4E8D7
:1024500088014824214DDDF828C09BB2CDF800C08A
:102460000394CDE901354FF0FF3306F062FE05001D
:1024700016D0FEF7ECFD04461022414606F0DEF8C9
:1024800084F862702022164904F140000BF0CEFA65
:10249000002084F86600668521462846FFF754FE32
:1024A000284604B0B5E670B50C46050012D0002CE5
:1024B00010D0FEF7CCFD064620460BF005FA421C74
:1024C000214606F12E0009F019F92846BDE87040B2
:1024D00006F02DBE70BD0000C0C0C0005D23000826
:1024E0009801002010B501004FF0000003D008460D
:1024F000FEF7ADFDC08D10BD2DE9F0410E46070081
:1025000024D0FEF7A4FD0446006C08F015F905463A
:10251000214638462664FFF717FE384606F007FEC8
:10252000B4F86000002811D0206C08F005F9A8422A
:1025300005D03846FFF702FF3846FFF76CFEB4F9C6
:1025400060003146BDE8F04109F0A4BD61E62DE927
:10255000F04116460D46070014D0032D12D2FEF7A7
:1025600076FD044600EB85004664384606F0DFFD44
:10257000B4F96000002805D032462946BDE8F04194
:1025800009F0BCBD45E62DE9F04116460D460700B1
:1025900014D0032D12D2FEF75AFD044600EB85003D
:1025A0000665384606F0C3FDB4F96000002805D082
:1025B00032462946BDE8F04109F0D6BD29E610B5FE
:1025C0000C46002810D0FEF742FD90F86610A1429C
:1025D0000AD060308471B0F90000002804D0214690
:1025E000BDE8104009F0AABD10BD0B490860704756
:1025F00009480068704710B500242E3009F003F92F
:1026000010B1FEF724FD0446204610BDA0F14101A3
:10261000192900D820307047980100207FB51C464A
:102620001546B0F90820438A0026CDE90232CDE9EB
:102630000016B0F90C10B0F91030B0F90E20B0F956
:102640000A0021442844FFF7FEFE04B070BD0000DC
:102650002DE9F043044689B04FF00008084609F020
:1026600031FF04EB8000806E08F046FD206E08F01C
:102670004FFDE06DFEF762FB07A9204606F01EFD48
:1026800002A9204605F05FFFB4F9280010B1FEF75B
:10269000DEFC8046DDE90201CDE90001BDF8001055
:1026A000B4F8580004AA0144491CADF80010BDF864
:1026B0000410081A401EADF8040069464046636DD8
:1026C00007F088FB94F82600C00745D0CDF81880A5
:1026D00094F8495005B90125B8F1000F3CD094F8A1
:1026E000480008B9606C30B3404607F0CCFB216C61
:1026F000814220DA606CA8B100250E460AE031461E
:10270000404608F03EF9404408F01CF9FEF78DFD04
:102710000544761CD4E910010844B042EFDC55B9F9
:10272000012508E0404608F02CF9404408F00AF979
:10273000FEF77BFD0546DDE904608146002708E0E1
:1027400006A808F00BF9FEF770FD304460F30F06A1
:102750007F1C206CB842F3D1002006F04DFE00280B
:1027600022D06D1E37B24FEA29493D44361402A8E3
:102770000AF0F8F904AB6A4602A9404609F010FED7
:1027800094F82600C00705D04B462A463146384605
:1027900007F0D6FF00200AF0E5F9204606F031F8F0
:1027A00006F003FE0028E2D109B0BDE8F08370B561
:1027B0000546B0F928000C46002819D0FEF747FC62
:1027C00007F061FB95F8481001B10121002C00DAF7
:1027D0000024844200DD0446B5F92A00401AA042D4
:1027E00000DA0446286CA04200D02C640020686403
:1027F00070BD2DE9F84F0C465FEA000956D0FEF790
:1028000026FC0546B0F9280000284FD0FEF71FFC33
:102810000090E86DFEF792FA8246484607F030F9DC
:102820000746009807F042FF064695F8540000F06E
:102830000300012816D002280DD0296AA86D496925
:102840000844241A641E009807F01DFB8046002CE3
:102850000EDA002121E0B81B401C00EBD070A4EB85
:102860006004F0E7A96DB81B401A241A641CEAE75B
:10287000B44201DD014610E000273E4608E068460C
:1028800008F06CF8FEF7D1FC0644A64204DC7F1C7D
:10289000474501DAA642F2DB39462846FFF787FFB3
:1028A0005046FEF74BFA484606F041FCBDE8F88F6B
:1028B00070B50446808D4618B4F92800314608F0FA
:1028C00075FA050009D0208D20B92846FEF7BFFB18
:1028D00000210170A6852585012070BD70B50446D4
:1028E0000D46B4F92820002022B11046FEF7AFFBB8
:1028F0000AF0EAFFA18D2844411A491C002905DD90
:1029000010312046FFF7D4FF002800D0012070BD11
:1029100070B50546B1F928000C46002819D0FEF71D
:1029200096FB0646216C08F02CF8044630460AF067
:10293000CBFFA0420DD93444204607F0FFFF2118F9
:1029400020460AF09DFF2846BDE87040052109F0A9
:10295000C0BF70BD70B504460020B4F9281000292E
:102960000BD00846FEF773FB0546216C08F009F80A
:102970002844BDE8704007F0E5BF70BD70B50D4656
:1029800006007CD0FEF763FB040078D0E26C1AB13D
:102990002946304690476DE0122D4BD008DC082DBB
:1029A00050D00D2D66D0102D47D0112D08D11AE032
:1029B000132D29D01B2D5DD01D2D4ED01E2D47D09F
:1029C000202D57DB94F8480018B121463046FFF718
:1029D0009FFFAAB22146304600F0D6F948B3216CD9
:1029E000491C20462BE0B4F9280010B3FEF72FFB5A
:1029F0000546216C07F0C5FF4419204607F0A2FFE9
:102A00007F2837D2401C0FE0B4F9280088B1FEF7C8
:102A10001EFB0546216C07F0B4FF4419204607F061
:102A200091FF202826D9401E20700521304609F04C
:102A300050FF1FE0216C491C01E0216C491EFFF78B
:102A4000B6FE17E0216C491EFFF7B1FE214600E0FB
:102A500001463046FFF75CFF0CE094F8480001287F
:102A600005D0012084F84800216CBAE707E0002077
:102A700084F848003046BDE8704006F058BB70BD91
:102A80002DE9F041B0F9045004462846FEF7DFFA7C
:102A90000646284609F016FD07462146284605F059
:102AA000D3FD00282DD020680B2814D00C2804D08A
:102AB0000E2815D00F281FD108E0A068E0B1017AD8
:102AC000D1B101682846FFF794FE15E0294630464B
:102AD000BDE8F041BCE506F12800FEF705FB0BE080
:102AE00057B1A0684168002906DD0168092903D0B3
:102AF0002846BDE8F04141E72046BDE8F04106F038
:102B0000CEBDBDE8F0812DE9FF410C46DDE90AE1CB
:102B1000DDE90D7689B25025DFF8E8C241F4805135
:102B200041F00201CDF800E00395CDE9011C2146FA
:102B300006F0FFFA05001FD0FEF789FA04461022BE
:102B4000394605F07BFD1C22AF4904F154000AF020
:102B50006DFF012084F8490006B9082631B261856D
:102B60000020A0852085491C2046FFF7A1FE18B94A
:102B7000284606F07FF90025284604B0C1E770B565
:102B80000C46050009D0FEF762FA002805D0C4659E
:102B90002846BDE8704006F0CABA70BD70B515464B
:102BA0000C4606000DD0FEF752FA002809D0022C80
:102BB00007D200EB840085663046BDE8704006F021
:102BC000B6BA70BD70B515460C4606000DD0FEF7BE
:102BD0003EFA002809D0022C07D200EB84000566DB
:102BE0003046BDE8704006F0A2BA70BD2DE9F04154
:102BF0000E465FEA000884D0FEF729FA04467EB349
:102C0000B4F92800002520B1FEF721FA0AF05CFE95
:102C1000451C304607F037F90146B4F92A008842CE
:102C200000DA0146304607F0ACFE471C791B20460F
:102C3000FFF754FEE0B1B4F92800FEF708FA3A466F
:102C400031460AF06CFE7F1E2764B4F92A008742E1
:102C50000ED194F8480001280AD17F1E276407E0AE
:102C6000FFE704F12800FEF73FFA0020A08520646A
:102C70004046BDE8F04106F05ABA42E72DE9F0417E
:102C800015460C001CD000262670002818D0FEF730
:102C9000DEF9B0F92800002812D0FEF7D8F907466F
:102CA00007F0F1F80146A84200DD2946384607F052
:102CB00068FE05460246394620460AF030FE665553
:102CC0001FE710B501004FF0000003D00846FEF7E3
:102CD000BEF9C06B10BD70B50C4605001AD0FEF7EA
:102CE000B6F9016BA14200DD0C46416BA14200DA4E
:102CF0000C46C16BA1420DD0C463016D09B12846D9
:102D00008847284606F013FA2846BDE8704005219A
:102D100009F0DFBD70BD2DE9F0410D46060023D05E
:102D2000FEF795F90446B0F92A00A8421CD00FDD41
:102D3000B4F9280060B1FEF78AF9074607F0A3F856
:102D4000A84205DD2946384607F01BFE002139540C
:102D5000A08D291A491C2046FFF7AAFD658530463B
:102D6000BDE8F04106F0E3B9CBE670B50C460500CE
:102D700009D0FEF76CF9002805D044652846BDE867
:102D8000704006F0D4B970BD2DE9F0418046B1F92C
:102D90002A0015460C4600280DDDB4F92810002045
:102DA00021B10846FEF753F907F06DF8B4F92A107F
:102DB000401C884223DC284607F0CCFD064601462D
:102DC0002046FFF78BFDD0B1B4F92800FEF73FF99C
:102DD0000746216C07F0D5FD3C1820460AF074FD2B
:102DE000421CA01921460AF0DFFD2946204607F0C3
:102DF000ADFD0521404609F06CFD012081E6002073
:102E00007FE60000812A0008B8010020F0B50446E2
:102E100085B01D4616464069B4F90820638A00272C
:102E2000CDE90232CDE900170490B4F90C00B4F9F1
:102E300010304119B4F90A00B4F90E203044FFF7FC
:102E400062FE050002D0618AFFF78FFF05B02846B9
:102E5000F0BD000070B50D460646FEF7F8F8040018
:102E600035D0102D30D0112D19D0122D29D0132D81
:102E700021D0303D012D01D94FF0FF35002D09DB68
:102E8000E8B23246214600F067F8216C2046491C22
:102E9000FFF78DFC3046BDE8704000F04DB800F003
:102EA0006DF8401C012800DD0020C0B232462146EA
:102EB00000F052F8EEE700F061F8401EF5D5012071
:102EC000F3E7216C491CE3E7216C491EE0E770BD84
:102ED0002DE9F0411D4616460F465FEA000829D04D
:102EE000FEF7B5F82C49C1642C4904460165002160
:102EF000C4E90F71B0F92A100A1E06DC2846002129
:102F000001E04008491C0028FBD1202900DD2021D8
:102F10008A4202D04046FFF7FEFEC4E90C6501205C
:102F200084F84800404600F007F84046BDE8F0410C
:102F300006F0FDB8BDE8F08138B5FEF788F8044624
:102F4000B0F92800FEF783F8009094F82A106A463A
:102F5000E06B07F09BF838BD30B4034691F82A00C7
:102F600091F84040C96B001B401E01248440A143DE
:102F7000834030BC19431046FFF7ADBE90F82A10CD
:102F800090F84020C06B891A491E01228A401040E7
:102F9000C840C0B270470000552E0008392F000805
:102FA00038B5FEF754F80446B0F92800FEF74FF89C
:102FB000009094F84A00012808D094F8382094F83A
:102FC0002A10E06B6B4607F0A5F838BD6946E06B48
:102FD00007F091F894F82A1094F83820491EC9B2E5
:102FE000F0E710B5016C0446491CFFF7E0FB2046F2
:102FF000FFF7B0FC2E280DD1B4F92A00216C401E39
:10300000814201DA491C00E0491E2046BDE810401B
:10301000FFF7CDBB10BD30B403460C46B0F92A0013
:10302000196C401A93F83810401E31B1814204DA0D
:10303000401E02E002EB82014A00401EFAD2D86B29
:103040008118204630BCFFF746BE2DE9F34F81B012
:103050000C460198FDF7FBFF060066D0132C44D008
:1030600006DC102C4FD0112C31D0122C04D12BE0C7
:103070002B2C1BD02D2C20D0FFF76CFCC0B22D28A0
:1030800053D02B2851D0204600F0A9F800284CDB63
:1030900081460198002400902546B6F92800FDF7E6
:1030A000D6FF82460027DFF870B15EE0306C48BB87
:1030B0003046019900F099F805E0306C10BB3046BD
:1030C000019900F09BF83046FFF78BFF2DE0FFF7EA
:1030D00041FCC0B22D2803D02B2801D001220DE0E5
:1030E0003046019900F093F81FE0FFF733FCC0B2BF
:1030F0002D28F5D02B28F3D04FF0FF323046019920
:10310000FFF789FF11E0316C491EFFF750FB304695
:10311000FFF720FC2E2808D1316C002901DD491E63
:1031200000E0491C3046FFF742FB0198BDE8FE4F26
:1031300036E7C01B316C401E814205D15BF825107B
:103140006D1C01FB09440FE01AF80000804600F0F6
:1031500046F8002804DB5BF825106D1C01FB0044D9
:10316000B8F12D0F00D164427F1CB6F92A00B84295
:10317000DFDC21460098FFF7AEFDA4E72DE9F0471C
:103180001E46DDE9085A174688465FEA000924D042
:10319000FDF75DFF04462148E064214820650020DA
:1031A000C4E90F80C4E90C7684F8385084F84AA04A
:1031B000012084F848004846FFF7F2FE2046FFF75A
:1031C000C9FB2E2804D1216C2046491CFFF7EFFAD9
:1031D0004846BDE8F04705F0AABFBDE8F0873038A3
:1031E000092801D94FF0FF307047C06B0A4600280C
:1031F00003DA41421046FFF76EBD7047C06B0A46C6
:10320000002803DD41421046FFF765BD7047C26BE1
:10321000002A00DDF2E7E8E7842306084B300008C7
:10322000A12F0008F0B40E46B0F92A10046C012357
:103230000C1B641E00E01B01641EFCD2002A01DA94
:10324000DB435B1CC06BC1183046F0BCFFF743BDCD
:103250002DE9F0410D460646FDF7F9FE040039D090
:10326000102D1CD0112D12D0122D15D04FF0FF3281
:10327000132D0DD0A5F130073946092F13D925F0AC
:103280002001A1F1410005280CD837390BE00122BB
:103290003146FFF7C7FF1DE0216C491C18E0216C87
:1032A000491E15E01146002914DB94F82A0094F811
:1032B0004020801A401E80000F2282408140E06B37
:1032C000904301433046FFF706FD216C2046491C20
:1032D000FFF76DFA3046BDE8F04100F034B82DE953
:1032E000F0411D4616460F465FEA000829D0FDF75B
:1032F000AEFE1D49C1641D49044601650021C4E9B3
:103300000F71B0F92A100A1E06DC2846002101E0E0
:103310000009491C0028FBD1082900DD08218A4248
:1033200002D04046FFF7F7FCC4E90C65012084F8A1
:103330004800404600F007F84046BDE8F04105F07F
:10334000F6BEBDE8F08138B5FDF781FE0446B0F960
:103350002800FDF77CFE009094F82A106A46E06B86
:1033600006F014FF38BD0000513200084733000852
:1033700070B50D460446FDF76AFEB0F85C104FEAE2
:10338000017225B1002A0DDB41F0080103E0002A9B
:1033900008DA21F00801A0F85C102046BDE8704072
:1033A00005F0C5BE70BD10B50146002091F826207D
:1033B000920607D5B1F94000002803D1886A07F0CA
:1033C000B7F9801C10BD2DE9F05F4FF000080C46E6
:1033D0000546C146B0F9426006F044FB83462846E4
:1033E00006F047FB824695F82600800601D5B5F920
:1033F00044902846FFF7D7FF0746B5F94E0010B1B5
:1034000006F04AFB80462780A4F80280ABEB06005A
:1034100006EB0901A680401ECA19208102EB0801B3
:10342000E180AAEB0601491E6181A6812082F01984
:10343000E681401E6082B5F9180022E0FDF707FE24
:10344000B0F90010B5F90020B0F90430891A9A1AC1
:10345000B0F90230B5F90270DB1BB3420FD1037F24
:103460001B0606D5B4F910208A4208DB491E2182CA
:1034700005E0B4F90C10914201DC521CA281B0F9B4
:103480001A000028DAD1BDE8F09F2DE9F04F8BB08B
:10349000044605F0EBFE06464FF0000B06F0F0FA8E
:1034A0000546304606F0F8FA0646B4F94280694609
:1034B0002046FFF788FF94F85C00C0F3C007B4F91A
:1034C000500010B1FDF7C3FD8346BDF80400ADF810
:1034D0001400BDF80800ADF81800BDF80E00ADF8F6
:1034E0001600401CADF80E00BDF80C00BDF812101F
:1034F000401CADF80C00BDF81000ADF81A10401ECD
:10350000ADF81000A06AFDF719FCB4F95A3003A910
:1035100007AA5846099106F05DFCBDF9001000208D
:1035200001EB080A05F068FF002844D0AAF1010960
:1035300004EB8707F86A07F0DFFD786B07F0E8FD1A
:1035400007AB05A95846099A08F02AFFFE4807F07C
:10355000DFFD0021A8F101036A1E0846FDF7E8FA25
:10356000BDF904200021521E731E0846FDF7E0FA43
:10357000BDF90800731E401C6A1E0021FDF7D8FA31
:10358000BDF90A10731E491C6A1E0020FDF7D0FA0F
:10359000B4F944106A1E01EB090351460020FDF7FF
:1035A000C7FAB4F94200022801DB05F0D2F905F0B0
:1035B000FCFE0028BED10BB0BDE8F08F002800D083
:1035C000D6E670472DE9F041B0F90460044688B0B2
:1035D0003046FDF73CFD0546D4F80880476E05E00F
:1035E00079682046884700281ED13F68002FF7D110
:1035F0002068172848D00CDC0D2878D004DC0B2874
:1036000073D00C2818D118E00F2812D0142813D129
:103610002FE01F284AD0212876D0262837D02A2804
:103620000AD1A06818B1286608B0BDE8F081286EFC
:1036300058E02846FFF729FF85E0A468002CF3D066
:10364000207A0028F0D095F85C00000702D43046BC
:1036500006F0EEFA304606F0FBF895F85C00C0067E
:10366000E2D5BA482146B0F90020304609F0D4F935
:10367000DAE769462846FFF7A6FE0199C8F8001068
:103680000299C8F80410CFE7B5F94C002AE0A06809
:103690000228C9D1ADF81A60A068079027200590CC
:1036A000B4F9060005A905F0BCFBBDE7A068012838
:1036B00004D000213046FFF781FFB5E7B5F95E0081
:1036C00009F0E2F820B1B5F95E0006F0B1FA04E0C5
:1036D00035F94C0F09F0E8F9688201213046FFF70F
:1036E0006DFF0020A0609FE701E028E00CE095F866
:1036F0005C00000727D4A0688068F8B1007AE8B1C0
:10370000304606F095FA1EE0A768BFB1B7F902008F
:10371000314608F0D2FE20B101213046FFF728FEE5
:1037200011E000213046FFF723FEB7F900003146D3
:1037300008F0B2FE10B13888A5F85E0003E005F18C
:103740005000FDF7D1FC2146304604F07DFF0028F3
:103750008ED0204605F0A3FF66E72DE9FE43B0F9C1
:1037600004700446384606F043F98046FDF76FFCC6
:103770000546866C2068172856D008DC0E283BD0FA
:103780000F280BD014284FD015283CD14CE01F280F
:1037900018D0202829D0222835D143E0E86B6FF0DB
:1037A0007041884203D007F0A7FCFDF74BFF002EC5
:1037B00006D007CC8DE80700ADF804706846B04726
:1037C000BDE8FE83A0680028FAD0B5F95E0020B1FC
:1037D000B84202D006F02CFA04E0384609F064F949
:1037E000A5F85E000020A060EAE703B0214640464D
:1037F000BDE8F04304F028BFA0684168002902DD5D
:103800000068092808D07EB1A4F8048003B02046DF
:10381000B446BDE8F0436047384609F045F9A5F8DD
:103820005E00CDE7E86BDEE72046BDE8FE4305F02D
:1038300036BF10B50446B0F84C0086B018B9B4F8DD
:103840004E00002829D069462046FFF7BCFDB4F998
:103850004C00A8B1BDF90620BDF9041009F016F816
:10386000BDF90A00BDF90610421ABDF90800BDF9FC
:103870000410521C411A491CB4F94C0009F056F9C5
:10388000B4F94E00002808D0BDF90610BDF9022099
:103890008A1ABDF9041008F0F9FF06B010BD70B522
:1038A0000D4604000CD0FDF7D2FB2946503006F03F
:1038B00056FB002804D02046BDE8704005F037BC18
:1038C00070BD2DE9F04F89B013AD129EB5E8100D13
:1038D00044F480574825DFF878C0DDF85C90BCB22E
:1038E00000960395CDE9014C05F023FC060048D075
:1038F000FDF7ADFB04463022514604F09FFE13490C
:103900002022091D04F128000AF090F8483400250F
:103910006582C4F80090A4F81480E582E580E56132
:10392000483C04A92046FFF74EFD0A4841F2827147
:1039300000960395CDE90110BDF91A00BDF91610E6
:10394000431A5B1C08E00000AAAAAA00D4010020C8
:10395000C53500085B370008BDF91820BDF9140013
:10396000121A521C05F0E5FBA4F84C0042F20400C8
:10397000074202D1304606F02CFA59463046FFF78E
:103980008EFF304609B017E670B50C4605000CD026
:10399000FDF75DFBB0F95A10A14206D0A0F85A40DD
:1039A0002846BDE8704005F0C2BB70BD10B50C469E
:1039B00000280AD0FDF74BFB30F85C1F14B141F032
:1039C000100101E021F01001018010BDF0B587B0B9
:1039D0001D46DDE90D7304460C9E00200591029002
:1039E000CDE90304CDE900023A4631462846FFF707
:1039F00068FF07B0F0BDF0B587B00CAC0DF10C0E50
:103A0000B4E8E0100024CDE9005C0294AEE8D000F8
:103A1000FFF757FFEDE7F0B587B015461C46428A21
:103A20000DF1080C0C9FB0F908304668ACE8CC00EA
:103A30000022CDE90012B0F90C10B0F91030B0F945
:103A40000E20B0F90A0021442844FFF73AFF07B0DE
:103A5000F0BD2DE9F0410F46050012D0FDF7F7FA51
:103A60000446FFF7A0FC06462046A762FFF7E1FEEA
:103A70003146204607F051FD2846BDE8F04105F0EB
:103A800056BBBDE8F0812DE9F0410E465FEA000823
:103A90004FF0000515D0FDF7DAFAB0F940500446B2
:103AA000AE420ED0FFF77FFC0746A4F840602046E8
:103AB000FFF7BFFE3946204607F02FFD404605F0D0
:103AC00036FB2846BDE8F08110B50024283007F009
:103AD000A9FE00B1441D204610BD2DE9FF47044654
:103AE000406838B3012802D002287DD116E0B4F92D
:103AF0000000FDF7ACFA0546806CFDF71FF906469D
:103B00002846A168FFF7E0FF06F0D0FD04463046E6
:103B1000FDF714F9204604B0BDE8F087B4F90000C1
:103B2000FDF795FA0446806C06F006FEB4F87610B0
:103B30000844F0E7B4F90000A668FDF788FA0546E6
:103B40003146283007F05FFEFDF781FA074602A8EC
:103B500008F0FCFDFDF730FB3979804695F87420BC
:103B6000C1F3400001F00101520703D518B961B952
:103B700000200DE008B103200AE0B5F97200B04260
:103B8000F6D195F82600C00701D0022000E0012000
:103B900005EB8007386D07F0AFFA386E07F0B8FA1A
:103BA00031462846FFF790FF8146022006F0A0FE2E
:103BB000FDF748FDD4E90312491C4846FCF726FEF0
:103BC00095F8740040071FD5B5F97200B0421BD1BB
:103BD000A089ADF80000208AADF80200BDF80C0005
:103BE000ADF80400218A00E00EE0A8F101000844CD
:103BF000ADF80600386D6FF07F41081A07F088FABB
:103C00000021684606F0DCFB002084E7283007F03E
:103C100073BD2DE9F0470E4681469046114606F1E8
:103C2000280007F0FFFD040001D065886DB9B06C75
:103C3000FDF784F80746434602223146484600F025
:103C40004CFC05463846FDF779F804B165802846F6
:103C500062E72DE9F05F82464FF00008FDF7F7F9C3
:103C60000746FFF7D3FF814600251CE0294607F1F0
:103C7000280007F0D7FD040001D026886EB9B86C83
:103C8000FDF75CF883462B4601223946504600F08A
:103C900024FC06465846FDF751F804B12680B0458D
:103CA00000DAB0466D1C4D45E0DB4046BDE8F09FB4
:103CB0002DE9F041804616460F460846FFF7A6FF5D
:103CC000B04210D97C6BB4420DDC002506E02246E0
:103CD00039464046FFF79DFF0544641CB442F6D3C5
:103CE0002846BDE8F0814FF0FF30FAE72DE9F047B4
:103CF000884681460124FFF789FF0646012816DD24
:103D00000025404600F0F8FB0746741E09D4224601
:103D100049464046FFF77DFF0544BD4201DC641E75
:103D2000F5D5341B641E012C01DA0120F4E620468F
:103D3000F2E63EB5054600200090019002900C4648
:103D40002846FDF784F9B0F9700010B9284605F04F
:103D50004FFE262100910294ADF80650694605F009
:103D600060F83EBD2DE9F041B1F972504E6B074647
:103D70000C46002D25DB0846FFF748FFA8421ADD58
:103D8000606BA84217DC2A4621463846FFF790FFB1
:103D900080462A4621463846FFF73BFF00EB0805E0
:103DA000384600F0A9FBA84205DAB4F97200A16B0D
:103DB000401A401C6063B4F97200616B884200DAFB
:103DC000606304F13000804608F060FC04F13C00C0
:103DD000054608F05BFC2A464146384604F09EFC46
:103DE000606B801B7DE710B5283007F01BFD0028B5
:103DF00002D000210180418010BD1CB504466946F7
:103E000008F0ACFC6946204605F064F91CBD2DE9BC
:103E1000FC41151E0F4606461ADBFFF749FF041E3C
:103E200016DB2A4639463046FFF7F3FE054669465B
:103E3000304608F093FCBDF802006D1E2044ADF83A
:103E400002002844ADF806006946304605F042F904
:103E5000BDE8FC817CB50546002A10DBFFF728FF92
:103E6000041E0CDB6946284608F078FCBDF8020009
:103E700069462044ADF80200284605F02BF97CBDC8
:103E800070B591F87540054614B908F0B7F90446C5
:103E9000FF21284605F06CFD0646FE21284605F068
:103EA00067FD05462146304608F0E2F921462846DE
:103EB000BDE8704008F0DCB97CB5054600F027FB92
:103EC0002846FDF7C4F80446FFF7A0FE2063294604
:103ED0002046FFF70BFFA0636946284608F03EFC2A
:103EE0002846FFF7B6FEE063BDF90400BDF90010F7
:103EF000401A401C606421462846FFF733FF7CBD12
:103F00002DE9F0410C46060037D0FDF7A0F8054634
:103F1000FFF77CFE00B1401E844200DD04464FF0F6
:103F2000FF37002C0ADB214605F1280007F06BFC67
:103F300028B1FDF78CF80079800700D53C46B5F92B
:103F40007270A74219D0A5F8724029463046FFF793
:103F500009FF18B13046FFF750FF09E03A462946FD
:103F60003046FFF754FF224629463046FFF74FFF01
:103F70003046BDE8F0410421DBE6B2E62DE9F04130
:103F800080468CB014460D460846FFF73FFE0746B4
:103F9000A86CFCF7D3FEA068016807914068089000
:103FA000B5F902004242B5F90000414207A806F007
:103FB0003FFC09A9404608F0D1FB09A907A805F074
:103FC0007BFFBDF81C00ADF81400BDF82000ADF873
:103FD000180000200190ADF80080BDF92400296C84
:103FE000401A0390BDF9260004906C6B26E000B2E5
:103FF000BDF92210ADF81600884221DC2246294680
:104000004046FFF706FE0646BDF81610401E08445F
:1040100000B2BDF91E10ADF81A0088420ADB05A8EF
:1040200008F0A0FD0294E96A684609B1884701E0FA
:10403000FFF753FD0498641C30440490BC42D6DB67
:10404000002008F08FFD0498ADF81600BDF82A0096
:10405000ADF81A00286D07F04FF805A806F0BCF877
:10406000284604F0CEFB0CB03BE670B5064691F84E
:1040700074000C461546400718D5114604F1280077
:1040800007F0C1FB002811D0FCF7E1FF01798A0796
:104090000CD481F00101017104213046FFF749FE83
:1040A0002A4621463046BDE87040B0E670BD10B5E6
:1040B00001004FF0FF3004D00846FCF7C8FFB0F90C
:1040C000720010BD2DE9F0470F4681464FF0FF35D5
:1040D000FCF7BDFF80464846FFF7E9FF044640462F
:1040E000FFF794FD064608F12808E4190FD4B442FE
:1040F0000DDA2146404607F086FB28B1FCF7A7FF02
:104100000079800700D42546002DEEDB01E0002D6C
:1041100004DB29464846BDE8F047F1E6FCE4002808
:1041200002D04FF0FF31CDE77047002801D00121C8
:10413000C8E770472DE9F0410C460646FCF787FFBB
:10414000122C1CD004DC102C25D0112C04D130E012
:10415000132C2AD0202C0BD0204600F015FAA0F109
:104160006101192929D93038092826D90020B8E554
:10417000B0F9722001463046FFF777FF3BE0B0F818
:104180004C20016C11440AE03046FFF795FE3046A2
:10419000FFF733FE2FE0B0F84C20016C891A3C3059
:1041A00008F09AFA0028EFD125E03046FFF7BDFF6E
:1041B00021E03046FFF7B3FF1DE03046FCF747FF34
:1041C0000746204600F0E0F9054600240EE02146AF
:1041D0003846FFF779FC007800F0D6F9A84204D100
:1041E00021463046FFF78CFE05E0641C3846FFF799
:1041F0000DFDA042EBD8012073E502004FF0000056
:1042000001D0104696E770472DE9F0470446B0F913
:10421000040086B08146FCF71AFF05462146484651
:1042200004F012FA0028206809D00E287DD00DDC99
:1042300005287BD00B287AD00C2835D183E01F28A5
:1042400076D1A068002873D10B217AE00F2830D0F6
:10425000112834D0262827D1A068052802D00628A6
:1042600022D122E0484605F0CEFB0146B4F9060013
:10427000814205D102A905F0C9FB039868630CE0EF
:10428000484605F0BDFB0146B4F9060081427DD1E8
:1042900002A905F0BBFB039828644846FFF7ADFD73
:1042A0000A214846FFF745FD70E04846FFF704FE47
:1042B0006CE0224629464846FFF760FE66E0A068AB
:1042C000017AB1B3D0E900474FF0FF38694648465C
:1042D00008F044FABDF90000A0421FDCBDF902005D
:1042E000B8421BDCBDF90400A04217DBBDF9060093
:1042F000B84213DB2846FFF789FC8246BDF902600D
:104300006C6B09E0B74200DBA046224629464846CE
:10431000FFF77FFC0644641C5445F3DBB8F100044E
:104320000EDB42462946484604E01EE028E017E03E
:1043300014E024E0FFF799FE21464846FFF7E0FD30
:104340000121484608E0A168484621B1097A0029C0
:1043500004D1022100E00321FFF7EBFC06B077E473
:1043600005F1280007F0F3F910E0A0684168002982
:104370000CDD01684846FFF740FF0028EED105E05C
:104380004846FFF799FD484604F0D1FE204605F067
:1043900086F9E3E72DE9F0410C46060026D0FCF74C
:1043A00056FE0746FFF732FC0546AC421EDA002CEB
:1043B0000FDA002404E021463846FFF714FD641CA0
:1043C000AC42F8DB3046FFF777FD3046BDE8F04100
:1043D00013E521463846FFF706FD3046FFF76CFD32
:1043E000224639463046BDE8F04133E579E42DE90F
:1043F000FC410D4606002CD0002D2AD00020009054
:1044000001903046FCF723FE0746284609F05CFA87
:10441000821D07F128006946804607F06FF90028E1
:1044200017D1404607F068F9441E2146404607F080
:10443000F9F92946401D09F023FA21463846FFF7CD
:10444000D2FC3046FFF738FD224639463046FFF7AA
:10445000DEFCFDE470B50D46060010D04DB1002421
:1044600003E03046FFF7C3FF641C55F82410002911
:10447000F7D13046BDE870404FF0FF318AE770BD9C
:104480002DE9FF410C46DDE90AE1DDE90D6558271C
:10449000DFF800C189B2CDF800E00397CDE9011C37
:1044A000214604F046FE040014D0FCF7D0FD074678
:1044B0001022314604F0C2F82822374907F148009B
:1044C00009F0B4FA1DB129462046FFF7C3FF204684
:1044D000FFF7F2FC204604B003E400B585B001927A
:1044E000ADF800000293C96A684611B1884705B06B
:1044F00000BDFFF7F2FAFAE71CB5694608F02EF99D
:10450000BDF90600BDF90210401A401C1CBD7CB567
:104510000546FCF79CFD044690F8740080070FD513
:1045200029462046FFF7E2FB06462046FFF76EFBD2
:10453000864201D2012100E00021284605F0E2FB7D
:1045400094F87400C00715D02846FFF782FB064692
:104550006946284608F002F9BDF90400BDF90010CB
:10456000401A401C864201DD012100E0002128465E
:1045700005F0C7FB94F87500002804D021462846B2
:10458000BDE87C407CE47CBDA0F14101192900D844
:104590002030704709420008F801002070B586B04D
:1045A0001C461546468A0022B0F90830CDE901269E
:1045B0000091CDE90332B0F90C10B0F91030B0F928
:1045C0000E20B0F90A0021442844FFF759FF06B035
:1045D00070BD70B50C46050011D0FCF738FD90F8A1
:1045E000741021F001020CB142F00102914206D098
:1045F00080F874202846BDE87040FFF75DBC70BDB0
:1046000070B50C46050011D0FCF721FD90F8741030
:1046100021F002020CB142F00202914206D080F871
:1046200074202846BDE87040FFF746BC70BD00000E
:1046300010B50446C06D002806D1206D06F07CF848
:10464000A16D002900D0401C10BD7CB50E46012490
:10465000694608F083F8B6F9280007F0C2FCBDF9F6
:104660000610BDF90220891A0D1A6D1C3046FFF79D
:10467000DFFF18B1B5FBF0F404B9012420467CBD7E
:104680002DE9F04F80468FB017460C46B1F928004F
:1046900007F0C0FC089004F12A000C9007F02CF8F9
:1046A000064621464046FFF7D0FF00902046FFF720
:1046B000BFFF0290206E0390606E0190206AD0F8D8
:1046C00014A0B4F9280007F08CFC00EB0A05009850
:1046D000E16E401CB04201DC009E761C88190D90F2
:1046E000B8680168049140680590B4F9020042423C
:1046F000B4F90000414204A806F09AF806A9404621
:1047000008F02CF806A904A805F0D6FB206C06F0EA
:10471000FFFC206DFCF712FB022006F0E9F8E06ECA
:10472000A1E001460C9807F07DF8099000287CD0A4
:1047300028B2BDF91610ADF81A00884276DC02984E
:10474000BDF9121028440B90401E00B2ADF81E00B7
:1047500088426CDB616D414507D194F82600C007A3
:1047600001D0022602E0012600E0002604EB8609C3
:10477000D9F8340006F0C0FCA06D20B1BDF81E00D1
:10478000401EADF81E00A16F0027AAEB010559E0FD
:10479000B4F92800394607F0BCF9014628B2BDF942
:1047A0001420ADF8180090424FDC68180A90401EA3
:1047B00000B2BDF91010ADF81C00884240DB39464C
:1047C000099807F02FF80546B0F9000050B1FCF742
:1047D0003EFC834650F8260006F08EFC0BEB86006C
:1047E000C06801E0D9F8400006F092FCBDF91E3027
:1047F000BDF91C20BDF91A10BDF91800FCF7F6FE32
:10480000BDF8181003980844ADF81800BDF81C1046
:104810000198081AADF81C00394604F12E0007F083
:1048200001F8026806A9A81C02E01AE020E017E0DF
:10483000FCF7CCF8288818B1D9F8340006F05CFCF5
:104840000A9D7F1C08988742A2DBBDF91420AA426A
:1048500006DBBDF91E30BDF91A102846FCF7C6FE6E
:104860000B9D08F101000D9980468842FFF659AF73
:10487000BDF91600A8420BDB606B06F03DFCBDF9EC
:104880001630BDF91420BDF910002946FCF7AEFE24
:10489000A06DE8B3E06C06F03BFCB4F9280007F02B
:1048A000A0FB00EB0A056D1E002611E002980544EE
:1048B000BDF91600A8420EDBBDF91200A84206DCC5
:1048C000BDF91420BDF910102846FCF7D3F8761C6A
:1048D00000988642EADBA16F0026AAEB010515E0ED
:1048E000B4F92800314607F014F90544BDF9140065
:1048F000A84210DBBDF91000A84206DCBDF9162065
:10490000BDF912102846FCF7D9F8761C089800E08B
:1049100001E08642E4DB204603F073FF0FB0BDE800
:10492000F08F7CB50546B1F9280007F05AFB044624
:104930006946284607F012FFBDF802006946204488
:10494000ADF80200284604F0C5FB7CBD2DE9FC4112
:10495000161E0D4680461DDBB5F9280007F041FB09
:1049600007462846FFF764FE04466946404607F0BE
:10497000F5FEE96EBDF90200711A01FB040038442E
:10498000ADF80200641E2044ADF8060069464046BA
:1049900004F0A0FBBDE8FC813EB505460020009078
:1049A000019002900C462846FCF751FBB0F98000BC
:1049B00010B9284605F01CF8262100910294ADF8A4
:1049C0000450694604F02DFA3EBD2DE9F0410C4635
:1049D000CD6E496D804604F16806002905DB002391
:1049E0001A46304607F060FE02E0304607F04EFE01
:1049F00004F17400074607F049FE3A463146404646
:104A000003F08CFEE06E401BBDE8F0812DE9FC4711
:104A100080460D4601F12A0006F06EFE0446294646
:104A20004046FFF712FE286704B901244046694654
:104A3000AC6607F093FEBDF904000124401CE86752
:104A4000B5F92800814607F0E5FA07000AD00026EC
:104A5000344605E03146484607F05BF80444761CCE
:104A6000BE42F7DBD5E91E01621A904202DD201A30
:104A7000081A0444294640466C67BDE8FC47A4E791
:104A800010B5044600F01DFA002805D0411E20464E
:104A9000BDE8104007F07FBB10BD10B5044600F024
:104AA00010FA411C2046BDE8104007F074BB2DE908
:104AB000FE4FB0F9046005460146304603F0C4FDE0
:104AC000002823D03046FCF7C2FA044628680E2896
:104AD00068D006DC052848D00B2875D00C286FD18B
:104AE0004EE00F2846D025283FD0262868D1A86858
:104AF00005280DD0062838D0072807D1B5F90600BB
:104B0000B4F92810884201D100202085BDE8FE8F2D
:104B1000304604F078FF0146B5F90600814209D11C
:104B2000694604F073FF0198E06621463046FFF7BE
:104B3000F8FE15E0304604F063FF0146B5F90600C3
:104B40008142E3D1694604F061FF0198A0672146E4
:104B50003046FFF75BFFB4F92800A16F07F0A7F913
:104B60000A213046FFF718FFD0E721463046FFF70D
:104B70004DFFCBE72A4621463046FFF781FDC5E7CA
:104B8000AA6821465AB1107A38B1304600F01FF9B0
:104B90000124304605F04CF802E0022400E0032432
:104BA0002146DEE7A868416800293ADD0168304601
:104BB000112906D0132934D1FFF76FFFA6E703E0D0
:104BC0002FE0FFF75DFFA1E704F12A00834606F01E
:104BD00093FD814604F12E00824606F08DFD0746C6
:104BE000002616E03146584606F01CFE804600249A
:104BF00009E02146404606F015FEB0F9000008B174
:104C0000FCF76DFA641CBC42F3DB404606F09FFDE6
:104C1000761C4E45E6DB504606F099FD584606F0F8
:104C200096FD284604F03BFD70E72DE9FF4106465E
:104C3000DDE90A4742EA03000D463043DDF83480DF
:104C400028430FD16946204604F046FEBDF9040012
:104C5000BDF90010421ABDF90600BDF90210521C40
:104C6000431A5B1C6421DFF8E8C1B8B2CDE902C188
:104C7000CDE900402946304604F05BFA050023D018
:104C8000FCF7E5F904461022414603F0D7FC202248
:104C9000704904F1340008F0C9FE0020411EC4E947
:104CA00015100121C4E91701616602210095CDE9C3
:104CB0000110034602460146039007F008F82085DC
:104CC00021462846FFF7A2FE284604B09CE62DE9BF
:104CD000FF4114460D465FEA00082BD0FCF7B7F9F8
:104CE0000646B0F9280022462946039B07F0F6F84D
:104CF000042203A906F12E0006F000FD404600F054
:104D0000D2F805000ED0002406F12A0708E021465B
:104D1000384606F087FD0522002106F0EFFC641CF2
:104D2000AC42F4D331464046FFF770FE3146404670
:104D3000FFF7F7FDBDE8FF812DE9FC5F0C465FEA58
:104D4000000B42D0FCF783F982462A3005460190D9
:104D500006F0D2FC009004220021284606F0CEFC8A
:104D6000002832D1BAF9280007F054F9814600250D
:104D70001EE0DDE9001006F055FD80460CB180CC48
:104D800000E0002707B90024384605F008F9461C62
:104D9000421D0021404606F0B1FC2946404606F07F
:104DA00041FD012E03DD3946801C08F069FD6D1CB4
:104DB0004D45DEDB51465846FFF728FE009A02B00B
:104DC00051465846BDE8F05FC0E5BDE8FC9F2DE9BF
:104DD000FC41074614460D46B1F9280007F001F9D9
:104DE00006466946384607F0B9FCBDF902206368FB
:104DF0002068A3EB0203BDF90010A3EB0604BDF885
:104E00000430401AA3EB010109B2ADF80410BDF85B
:104E10000630A3EB020212B2ADF8062017D481428D
:104E200015DB002C13DB901BA04210DB2846FFF79C
:104E3000FFFBB4FBF0F0E96E441805F12A0006F020
:104E40005BFCA04203D92146384607F0A4F9A1E54E
:104E5000AF4A0008200200207FB51C461546B0F975
:104E60000820438A0026CDE90232CDE90016B0F9C8
:104E70000C10B0F91030B0F90E20B0F90A0021443E
:104E80002844FFF7D2FE04B070BD10B501004FF00A
:104E9000000007D00846FCF7DAF8BDE810402E30D5
:104EA00006F02ABC10BD10B501004FF0000007D07D
:104EB0000846FCF7CCF8BDE810402A3006F01CBCD0
:104EC00010BD10B501004FF0FF3003D00846FCF7CD
:104ED000BEF8406D10BD2DE9F0410E4607004FF0C1
:104EE00000050ED0FCF7B3F8856D0446AE4208D03D
:104EF00001463846A665FFF789FD21463846FFF78B
:104F000010FD2846BDE8F0812DE9F0479946164688
:104F10000F465FEA000826D0FFF7B7FFB84222D954
:104F20004046FFF7C0FFB0421DD94046FCF78FF85E
:104F30000546484605F033F8441C314605F12A0081
:104F400006F070FC221D394606F096FC012C03DDAC
:104F50004946801C08F094FC324629464046BDE88C
:104F6000F047FFF7F3BCBDE8F08770B50C460500CD
:104F70000BD0FCF76CF80146006EA04205D0284625
:104F80000C66BDE87040FFF7CCBC70BD70B50C4638
:104F900005000BD0FCF75BF80146406EA04205D03F
:104FA00028464C66BDE87040FFF7BBBC70BD0000F2
:104FB00070B50168B0F904400E290ED01E2905D045
:104FC000262915D0BDE8704004F069BB2046BDE835
:104FD00070406FF07F4106F07EBB8068D0E9001022
:104FE000002814D00D290CD01B2910D1012109E073
:104FF0008568B0F9060004F0CAFC022D07D101282B
:1050000005D100212046BDE87040FCF7CEBF70BD41
:105010002DE9F74F96B08B4606F010FB80463A21FB
:1050200001EB4804482102A808F032FD07F0B0F96E
:10503000FBF784FE0090FF2214A8169905F040FBB0
:10504000BDF95400BDF95010451ABDF95610BDF90F
:10505000520008350E1A761C05F10C00844200DA65
:10506000044606F0C8FA05F063FB311801EB480767
:105070002137584605F01AFB00EB4800A04200DD3E
:10508000044606F097F8A04202DA06F093F80446C8
:1050900006F093F8B84202DA06F08FF8074606F0F9
:1050A00089F8001B00EBD0704FEA600A06F085F823
:1050B000C01B00EBD0704FEA60090098FBF73EFE82
:1050C0002948CDE9020BADF812A01898ADF814905C
:1050D000ADF81640ADF81870C00602D51020ADF836
:1050E0001A002248089016980990611BC8F1000028
:1050F00001EB400101EBD1714910ADF82A100421F8
:10510000ADF82C1002210D9119490E9119A10F91A2
:1051100004EB4000ADF82E5001213238ADF84010BC
:1051200000EBD070ADF830604010ADF842000836AA
:10513000ADF844603220ADF846001420ADF84800C8
:1051400000200090034601900B4A032102A8FCF7BF
:10515000F8FE19B0BDE8F08F10B5FFF759FFBDE8B4
:105160001040FCF730BF0000173A000847840008E1
:10517000BD1D00084F4B0000B14F00082DE9F04164
:1051800005460C460026B0F93800FBF760FF0746DD
:10519000E98F05F0F6FBC219944204D2111B204698
:1051A00005F000FC06463046BDE8F081F7B50D4637
:1051B00001F0E9F8064695F87400800632D52846D5
:1051C0000299FFF7DBFF074695F8782031460298F1
:1051D00004F0EFFE0446B84222DB95F8780068B18F
:1051E0003C462146029801F0E3F80546394602980C
:1051F00005F0C7FB0299084402900CE0029804F005
:1052000042FE04460CE02A20FCF70FF805440CB1DE
:10521000B54205DC641C02A805F0A0FB0028F2D111
:105220002046FEBD95F878203146029804F0C1FE74
:10523000E7E72DE9F04115460C46074601F0A3F8D3
:10524000014694F87400800615D529462046FFF7DC
:1052500095FF06462A4621463846FFF7A7FF044633
:105260000146284605F08DFBB4429DDA295C0A29E7
:105270009AD1401C98E794F878202846BDE8F04180
:1052800004F0FABE10B50C4690F87410890603D5E8
:105290002146FFF773FF30B1204605F053FBBDE810
:1052A0001040FBF7C2BF2A20F9E72DE9F041804604
:1052B00014460D46B1F93800FBF7C9FEB5F8521097
:1052C0000746A0B2A14218D008D2B5F85020A5F8E0
:1052D000520002EB0706A4EB010409E03E46A5F8E4
:1052E000520005E0324629464046FFF7A2FF064439
:1052F000641EF7D2F01BA5F85000B5F850003844F2
:1053000052E72DE9F04788468146144600251946A4
:10531000104605F036FBB8F85010271881421EDA07
:105320000C44B8F852501AE0224641464846FFF76E
:105330003DFF0146204605F024FB06192246414662
:105340004846FFF776FF0444B74207D8B7420AD170
:10535000A64208D1207830B16D1C04E06D1C207885
:1053600008B1A742E0D82846BDE8F0872DE9F0470C
:10537000054691F87500994692460C4600072ED5D1
:1053800000273E46206FFBF7D9FCB4F93800C8B1BE
:10539000FBF75DFEB4F84A10B4F8467001EB000864
:1053A0003A4621462846FFF780FF054608E0294691
:1053B0002046FFF767FF0644284605F0BFFA05447C
:1053C0004545F4D3A4F84C60FBF7F6FE7843A4F807
:1053D0004E0094F8750020F0080084F8750034F849
:1053E0004C1FCAF800106188C9F80010BCE77CB5F2
:1053F0000C4605466B4601AAFFF7B8FF206F05F083
:105400009BF90099002391FBF0F11A4604F1580032
:10541000009107F049F91E231A4604F1640001992E
:1054200007F042F9284601F013F87CBD2DE9F0475A
:10543000814691F875000C46400736D50020A4F847
:105440004200208F58B3206FFBF778FCB4F9380086
:10545000FBF7FDFD0646324621464846FFF7A6FE0D
:1054600080460025374608E039462046FFF70AFF08
:105470000544384605F062FA0744B8F10108F3D252
:10548000B4F84200A84201DAA4F84250324621465C
:105490004846FFF7CEFE064430780028DBD194F86A
:1054A000750020F0040084F87500B4F842005BE752
:1054B0002DE9F041804691F875000C46800729D50A
:1054C000B4F938000026E0B1FBF7C1FD0546206FB6
:1054D000FBF734FC2A4621464046FFF767FE0146AB
:1054E000284605F04EFA284405F02CFA070000D0B3
:1054F000761C2A4621464046FFF79BFE0544002FB6
:10550000E8D1761CA4F8406094F8750020F0020001
:1055100084F87500B4F8400046E670B50546FBF720
:1055200096FD044601462846FFF7C2FFA0652146C6
:10553000284600F09AFF206621462846FFF776FFAE
:1055400060662146284600F01EFFE0662146284698
:10555000BDE870404BE770B5064691F874000C4604
:1055600000071DD5304600F080FF05462146304635
:10557000FFF79EFF854201DA012500E0002529465C
:10558000304604F0BFFBA8420AD094F8750040F002
:105590000E0084F875002046BDE8704000F051BF51
:1055A00070BD70B50546FBF752FD0646014628461C
:1055B000FFF7D1FF96F87400C00617D5314628468C
:1055C00000F0E1FE044631462846FFF72FFF8442F3
:1055D00001DA012400E000242146284604F091FB72
:1055E000A04203D031462846FFF7B5FF2846BDE864
:1055F000704092E72DE9FF5FB1F93800DDF838B06F
:10560000994614460D46002852D0FBF720FD8046EF
:10561000284600F0A3FEE98FA14200DD0C4684423B
:1056200000DD04462146404605F0ABF90746234617
:10563000424629460098FFF764FE064608EB070A33
:10564000324629460098FFF730FE504525D9B5F877
:105650004810A1420FDB721E29460098FFF725FE75
:105660000446024629460098FFF7A0FD0146204661
:1056700005F087F92044A0EB0801404605F092F9B7
:1056800004460146404605F07CF90746234642465B
:1056900029460098FFF735FE0646B9F1000F01D004
:1056A000C9F80070BBF1000F01D0CBF800602046B4
:1056B00004B0BDE8F09F3EB5054602A800900C4638
:1056C00001AB2846FFF796FFB4F84810814210D08E
:1056D00046340199A18060800298208094F82F00C0
:1056E000A4F1460140F0080084F82F002846FFF797
:1056F0007EFE3EBD2DE9F0410E4607004FF000054D
:105700001CD0FBF7A4FC90F878500446B54215D0A5
:105710005934E67700F095FE207F40F006002077B0
:10572000384600F0BCFE34F8112C4FF6FF7024F818
:10573000110CA4F159013846FFF7BDFF284633E5A7
:105740002DE9F05FB2F100081C460F4683464FF08A
:105750000002AEDB002CACDB388F88B30025386F3D
:10576000FBF7ECFAFBF728FD94FBF0F239465846BC
:10577000FFF79BFD0646B7F93800FBF768FC824649
:10578000324639465846FFF711FD04460146304679
:1057900005F0F7F8FE493044C9690968884797F869
:1057A0007410890601D548B11DE038B10A2805D02A
:1057B000202818D197F87800012814D1641C12E031
:1057C0001AE0304605F0BEF8814631463846FFF70C
:1057D00059FD0544B9F1000F08D0454506DC3046B7
:1057E00005F0ACF80644641E002CEADC5046A6EB3B
:1057F0000A0105F0D7F8024639465846BDE8F05F81
:1058000059E756E77CB50C4605466B4601AAFFF7FB
:10581000ADFD206F04F090FF00990022431821464F
:1058200028460093FFF78CFF7CBD2DE9F8438046A6
:10583000B1F938000C46002530B394F874104907CC
:105840002BD4FBF704FC07460020B4F84660009018
:10585000B4F848200346521C21464046FFF7CAFED2
:1058600003463A4621464046FFF74BFD8046B4F8D2
:105870004A00384405F066F830B1464503D094F844
:105880007410890601D5012507E00A2805D02028D3
:10589000F9D194F878000228F5D02846BDE8F883BD
:1058A0002DE9F04104460D46B4F93820002022B11C
:1058B0001046FBF7CCFB08F007F82918B4F84400B1
:1058C000091A491C002913DD10314618B4F93800B3
:1058D000314605F06BFA05004FF000070AD0208F23
:1058E00018B92846FBF7B3FB0770A4F84460258776
:1058F000012059E4002057E42DE9F0478146B1F931
:1059000038000C4600284BD0FBF7A1FB8046B4F8CA
:105910004A5007F0D9FFA84242D908EB0506B4F86F
:10592000462021464846FFF7C0FC0746024621466E
:105930004846FFF73BFC0146384605F022F8C519FA
:105940003A4621464846FFF774FC3844AE4201D13E
:10595000451B03E0304604F0F1FF0546294630467A
:1059600005F020F807467119304607F089FF052138
:10597000484606F0AEFFA08FC01BA08794F87500C4
:1059800040F00E0084F87500204600F05AFDB4F88F
:105990004830424621464846FFF7B3FCA4F846008B
:1059A000E2E42DE9F0410C468046174601212046ED
:1059B00000F095FD68B3384604F0CCFF064601467A
:1059C0002046FFF76DFF20B3B4F93800FBF73FFB2B
:1059D000B4F84A104518284607F076FF421CA8196B
:1059E000294607F0E1FF3946284604F0AFFF0521BC
:1059F000404606F06EFFA08F401CA08794F875000B
:105A000040F0060084F87500204600F01AFD0120E1
:105A100030E400202EE42DE9F34F8BB00C46086FE4
:105A2000FBF78CF9FBF7C8FB216A814694F877B045
:105A3000D1F81480A06E08EB0B06E56D301A0590C6
:105A400005FB1980079094F8740000F0010004EB46
:105A50008007B86A05F050FB386B05F059FBFBF77F
:105A6000F1FD0FFA88F0ADF808600890ADF80A0073
:105A70000B9804F005F8A0EB0800A0EB0B00401E0B
:105A8000ADF80C000B9804F007F8A0EB0800401EDE
:105A9000ADF80E0002A807F065F80990208F0028E5
:105AA0005AD0002621460B9800F06DFC0A90214642
:105AB0000B9800F0DAFC8246B4F93800FBF7C7FA1D
:105AC00007460598ADF800000898ADF802000A985E
:105AD00000EB080101EB0B00401EADF80400E0886C
